:020000040800F2
:10000000000002206D380008A51A0008A71A000891
:10001000A91A0008AB1A0008AD1A00080000000079
:10002000000000000000000000000000AF1A0008FF
:10003000B11A000800000000B31A0008B51A000841
:10004000BD380008BD380008BD380008BD380008BC
:10005000BD380008BD380008BD380008BD380008AC
:10006000BD380008BD380008BD380008BD3800089C
:10007000BD380008BD380008BD380008BD3800088C
:10008000BD1A0008CD1A0008BD380008BD380008A8
:10009000BD380008BD380008BD380008BD3800086C
:1000A000BD380008BD380008BD380008BD3800085C
:1000B000BD380008BD380008BD380008BD3800084C
:1000C000BD380008BD380008BD380008BD3800083C
:1000D000BD380008BD380008DD1A0008BD3800082A
:1000E000BD380008BD380008BD380008BD3800081C
:1000F000BD380008BD380008BD380008BD3800080C
:10010000BD380008BD380008BD380008BD380008FB
:10011000BD380008BD380008BD380008BD380008EB
:10012000BD380008BD380008BD380008BD380008DB
:10013000BD3800080000000000000000ED1A0008B3
:10014000FD1A00080D1B00081D1B0008BD38000823
:10015000BD380008BD380008BD380008BD380008AB
:10016000BD380008BD380008BD380008BD3800089B
:10017000BD380008BD380008BD3800080000000088
:1001800000000000BD380008000000000000000072
:10019000BD3800080000000000000000BD38000865
:1001A000000000000000000000000000BD38000852
:1001B000BD380008BD380008BD380008BD3800084B
:0401C000BD3800083E
:1001C80010B5054C237833B9044B13B10448AFF389
:1001D80000800123237010BD700000200000000083
:1001E8003C3A000808B5034B1BB103490348AFF379
:1001F800008008BD00000000740000203C3A0008A0
:1002080081F0004102E000BF83F0004330B54FEABF
:1002180041044FEA430594EA050F08BF90EA020F2C
:100228001FBF54EA000C55EA020C7FEA645C7FEABF
:10023800655C00F0E2804FEA5454D4EB5555B8BFE2
:100248006D420CDD2C4480EA020281EA030382EA53
:10025800000083EA010180EA020281EA0303362DE5
:1002680088BF30BD11F0004F4FEA01314FF4801CB8
:100278004CEA113102D0404261EB410113F0004FCA
:100288004FEA03334CEA133302D0524263EB430381
:1002980094EA050F00F0A780A4F10104D5F1200E1F
:1002A8000DDB02FA0EFC22FA05F2801841F100017A
:1002B80003FA0EF2801843FA05F359410EE0A5F14E
:1002C80020050EF1200E012A03FA0EFC28BF4CF07F
:1002D800020C43FA05F3C01851EBE37101F0004535
:1002E80007D54FF0000EDCF1000C7EEB00006EEB42
:1002F8000101B1F5801F1BD3B1F5001F0CD34908CC
:100308005FEA30004FEA3C0C04F101044FEA445222
:1003180012F5800F80F09A80BCF1004F08BF5FEAA9
:10032800500C50F1000041EB045141EA050130BD89
:100338005FEA4C0C404141EB0101013C28BFB1F59B
:10034800801FE9D291F0000F04BF01460020B1FAE6
:1003580081F308BF2033A3F10B03B3F120020CDAB9
:100368000C3208DD02F1140CC2F10C0201FA0CF097
:1003780021FA02F10CE002F11402D8BFC2F1200CFC
:1003880001FA02F120FA0CFCDCBF41EA0C019040B2
:10039800E41AA2BF01EB0451294330BD6FEA0404FB
:1003A8001F3C1CDA0C340EDC04F11404C4F12002E6
:1003B80020FA04F001FA02F340EA030021FA04F3F8
:1003C80045EA030130BDC4F10C04C4F1200220FA4F
:1003D80002F001FA04F340EA0300294630BD21FA8D
:1003E80004F0294630BD94F0000F83F4801306BF53
:1003F80081F480110134013D4EE77FEA645C18BF47
:100408007FEA655C29D094EA050F08BF90EA020FDD
:1004180005D054EA000C04BF1946104630BD91EAD5
:10042800030F1EBF0021002030BD5FEA545C05D1D8
:100438004000494128BF41F0004130BD14F5800417
:100448003CBF01F5801130BD01F0004545F0FE418B
:1004580041F470014FF0000030BD7FEA645C1ABFC0
:10046800194610467FEA655C1CBF0B46024650EAF7
:10047800013406BF52EA033591EA030F41F4002123
:1004880030BD00BF90F0000F04BF0021704730B5A9
:100498004FF4806404F132044FF000054FF000017E
:1004A80050E700BF90F0000F04BF0021704730B53F
:1004B8004FF4806404F1320410F0004548BF404214
:1004C8004FF000013EE700BF42004FEAE2014FEA69
:1004D80031014FEA02701FBF12F07F4393F07F4F44
:1004E80081F06051704732F07F4208BF704793F047
:1004F8007F4F04BF41F40021704730B54FF460745A
:1005080001F0004521F000411CE700BF50EA01025C
:1005180008BF704730B54FF000050AE050EA010205
:1005280008BF704730B511F0004502D5404261EB75
:1005380041014FF4806404F132045FEA915C3FF4B6
:10054800D8AE4FF003025FEADC0C18BF03325FEA53
:10055800DC0C18BF033202EBDC02C2F1200300FA04
:1005680003FC20FA02F001FA03FE40EA0E0021FA29
:1005780002F11444BDE600BF4FEA4102B2F1E04384
:1005880024BFB3F5001CDCF1FE5C0DD901F0004C72
:100598004FEAC0024CEA5070B2F1004F40EB8300C2
:1005A80008BF20F00100704711F0804F21D113F1EE
:1005B8003872BCBF01F00040704741F480114FEA27
:1005C8005252C2F11802C2F1200C10FA0CF320FAB0
:1005D80002F018BF40F001004FEAC1234FEAD323CD
:1005E80003FA0CFC40EA0C0023FA02F34FEA430337
:1005F800CCE77FEA625307D150EA01331EBF4FF0C0
:10060800FE4040F44000704701F0004040F0FE40DA
:1006180040F40000704700BF53B94AB9002908BF29
:1006280000281CBF4FF0FF314FF0FF3001F0DEB85B
:10063800ADF1080C6DE904CE00F006F8DDF804E031
:10064800DDE9022304B070472DE9F047089D044610
:100658008E46002B4DD18A42944669D9B2FA82F26D
:1006680052B101FA02F3C2F1200120FA01F10CFAA9
:1006780002FC41EA030E94404FEA1C48210CBEFBE1
:10068800F8F61FFA8CF708FB16E341EA034306FB6A
:1006980007F199420AD91CEB030306F1FF3080F0F9
:1006A8001F81994240F21C81023E63445B1AA4B246
:1006B800B3FBF8F008FB103344EA034400FB07F7E8
:1006C800A7420AD91CEB040400F1FF3380F00A8129
:1006D800A74240F207816444023840EA0640E41B1E
:1006E80000261DB1D4400023C5E900433146BDE8CA
:1006F800F0878B4209D9002D00F0EF800026C5E96C
:10070800000130463146BDE8F087B3FA83F6002E83
:100718004AD18B4202D3824200F2F980841A61EBFB
:10072800030301209E46002DE0D0C5E9004EDDE719
:1007380002B9FFDEB2FA82F2002A40F09280A1EB01
:100748000C014FEA1C471FFA8CFE0126200CB1FB56
:10075800F7F307FB131140EA01410EFB03F088424F
:1007680008D91CEB010103F1FF3802D2884200F2DC
:10077800CB804346091AA4B2B1FBF7F007FB10116E
:1007880044EA01440EFB00FEA64508D91CEB04040C
:1007980000F1FF3102D2A64500F2BB800846A4EB67
:1007A8000E0440EA03409CE7C6F12007B34022FA52
:1007B80007FC4CEA030C20FA07F401FA06F31C4381
:1007C800F9404FEA1C4900FA06F3B1FBF9F8200C8E
:1007D8001FFA8CFE09FB181140EA014108FB0EF0D4
:1007E800884202FA06F20BD91CEB010108F1FF3A24
:1007F80080F08880884240F28580A8F10208614430
:10080800091AA4B2B1FBF9F009FB101144EA01413D
:1008180000FB0EFE8E4508D91CEB010100F1FF34E8
:100828006CD28E456AD90238614440EA0840A0FB80
:100838000294A1EB0E01A142C846A64656D353D056
:100848005DB1B3EB080261EB0E0101FA07F722FA7A
:1008580006F3F1401F43C5E9007100263146BDE8A3
:10086800F087C2F12003D8400CFA02FC21FA03F306
:10087800914001434FEA1C471FFA8CFEB3FBF7F087
:1008880007FB10360B0C43EA064300FB0EF69E42AC
:1008980004FA02F408D91CEB030300F1FF382FD245
:1008A8009E422DD9023863449B1B89B2B3FBF7F6ED
:1008B80007FB163341EA034106FB0EF38B4208D9C6
:1008C8001CEB010106F1FF3816D28B4214D9023E07
:1008D8006144C91A46EA004638E72E46284605E725
:1008E8000646E3E61846F8E64B45A9D2B9EB0208F6
:1008F80064EB0C0E0138A3E74646EAE7204694E786
:100908004046D1E7D0467BE7023B614432E73046B8
:1009180009E76444023842E703685A004CBF43F0D1
:10092800004323F000431844704700BF2DE9F84303
:1009380029B34F1E044615463E464FF0000808EB03
:10094800060101EBD171491004EBC1094846FFF7D4
:10095800E3FF0346C80008308F42204409D0AB4269
:1009680009D8FFF7D9FF0138A8420AD201F10108D6
:10097800E5E7AB4205D9884501D04E1EDFE74FF0C9
:1009880000094846BDE8F883012807D0022807D0A7
:10099800044B00280CBF18460020704702487047D7
:1009A80002487047691000086D10000871100008AF
:1009B80030B5234B83B004468D1E3BB301A92846AE
:1009C800AFF30080E8B101992A46FFF7AFFF01466F
:1009D800B8B1FFF7A1FF4B68A064012B2CD0002B06
:1009E80001F1040024DBFFF797FF0023C4E9130398
:1009F8000368002B11DBFFF78FFF2061002003B095
:100A080030BD00230920236103B030BD0D4B0E49D2
:100A1800C91AC91018460191D6E7C3F30360FFF756
:100A2800B3FF0028206114BF0020092003B030BDA7
:100A38000123C4E91303DBE7002323610520DEE774
:100A480000000000EC3A0008B43B00080368DA072D
:100A580010B5044606D49B0700F1480009D500F0FC
:100A68005BFC2368590709D51A070ED5DB0613D591
:100A780010BD00F049FC23685907F5D404F1D000F3
:100A880000F052FC23681A07F0D404F5A87000F0AF
:100A980053FC2368DB06EBD404F5E870BDE810408E
:100AA80000F08EBC092070470346006800B1184466
:100AB800704700BF704700BF70B504460E46316CE2
:100AC8002046FFF775FF054688B9326C62612369D5
:100AD80032462146012098470828F0D0072806D139
:100AE8002846316CFFF7E6FF301D00F001FC02F0EC
:100AF80043FF00BF2DE9F0470D1DD0F80C80D0F85A
:100B08001890074614460FCDADF5727D0DF10C0C0B
:100B1800ACE80F000FCDACE80F000FCDACE80F002C
:100B280095E80F0002AE4FF0000E8CE80F00C6F8F3
:100B380000E020E0336C7B614FF4F07231467AA814
:100B480002F00CFF3B697AAA394650469847889BC1
:100B580073642146CDE9006905463B463A460120C3
:100B6800C0470446E0B94FF4F0727AA9304602F063
:100B7800F5FE082D1AD1316C3846FFF719FF0934F4
:100B88005FFA84FA05460028D4D0B36B73643A46FA
:100B9800CDE900693B464AF010010120C04700B189
:100BA800092528460DF5727DBDE8F087072DF7D198
:100BB8002046316CFFF77EFF03A800F099FB00BFC9
:100BC800406C7047F0B5CB6B0B6401F1040C0E461A
:100BD8000546BCE80F00F9B001AC0FC4BCE80F0033
:100BE8000FC4BCE80F000FC49CE80F004FF0FF379C
:100BF80084E80F00009706E02B696A462946984763
:100C08000828044608D110992846FFF7D1FE002885
:100C1800F2D0092079B0F0BD6846FFF717FF062C1F
:100C2800F7D131462846FFF747FF00BFC160D96BAF
:100C380082611964002219465CE700BF70B5C66876
:100C480043690B64AEB903690A4604460D4601467A
:100C580002209847072805D008280FD129462046A2
:100C6800FFF72AFF3046296CFFF724FF281D00F004
:100C78003FFB0122FFF73EFF02F07EFE02F07CFE02
:100C8800C2681AB1CA6B0A64002233E79AE700BF48
:100C9800704700BF836801460BB1012018477047B1
:100CA800012912D009D873B90F2A0CD800EB820297
:100CB80018465368009A136070470339012994BF96
:100CC800012002207047022070470846704700BF85
:100CD80000B585B00A46002303A900911946FFF71D
:100CE800DFFF039805B05DF804FB00BF012912D0AF
:100CF80009D873B90F2A0CD800EB8200009A126841
:100D08004260184670470339012994BF0120022028
:100D18007047022070470846704700BF10B584B07E
:100D2800002303AC039200940A461946FFF7DEFF3E
:100D380004B010BD70B5D36B136402F1040C054602
:100D48000C46BCE80F00ADF50E7D0DF15C0EAEE86B
:100D58000F00BCE80F00AEE80F00BCE80F00AEE8DB
:100D68000F009CE80F004FF0FF368EE80F00169634
:100D780010E0FFF7D3FF214616A8A847034616AA96
:100D88006946082083B9049B9847052806460CD075
:100D9800092809D026996846FFF70AFE03466A46DD
:100DA8000C2116A8002BE4D0092616A8FFF74EFE42
:100DB80030460DF50E7D70BD2DE9F04FCC6C89B035
:100DC8001E4654F8043B06940D46174600F00308E7
:100DD800002E79D01A0C1B0405938DF81D200223D0
:100DE800D2B204EB82048DF81C302B6DB8F1020FDF
:100DF80008BFAC6B13F001030CD005A9384600F00E
:100E080079FB18B9082009B0BDE8F08F092009B0AE
:100E1800BDE8F08FD4F800A0BAF1000FEDD001932F
:100E280000F008030293022E4AD0B4F800A0B4F8E8
:100E380002900434AB6C29F0010B0F2138469B4417
:100E4800FFF746FF834539D82AF001039B448345C1
:100E580094BF002001204FEA490303F002030AF07F
:100E6800010A43EA0A03012B49D0022B32D0002B96
:100E7800CCD1B8F1000F02D0002840F0CD80043466
:100E8800D4F800A0BAF1000FCDD105A9384600F07A
:100E980031FB0028BAD1019B002BB3D00F21384673
:100EA800FFF716FF0E2102463846FFF737FF384690
:100EB8006A4A0F21FFF732FF0720A8E70020CAE798
:100EC800D4F804900834B5E71B0205930323ADF862
:100ED8001C308AE7236823F0004BB8F1000F45D196
:100EE80028B1029A002A5CD0BBF1000F74D0002B05
:100EF80000DA04340BF1010B04EB8B04C0E7B8F102
:100F0800000F19D1B0B163682268991C4FEAD272F8
:100F18003FF47CAF05F158010133049100F0908053
:100F2800201DFFF7C1FD04AB01462846AFF3008042
:100F380000285BD10834A3E70D213846D5F8209066
:100F4800FFF7C6FE8145F5D1AB6A9C42F2D1204637
:100F5800FFF7E2FC0F2102463846FFF7DFFE38466E
:100F68002A460021FFF7DAFE072050E70D21384610
:100F7800D5F82090FFF7ACFE814501D02368B6E78D
:100F8800AB6A9C42FAD104230022C5E90B23E3187B
:100F9800C5F828B06B632368002B59DB0123019344
:100FA800A8E705F15803CDF80C8004F1040AB0460F
:100FB80091461E460EE050460496FFF775FD002246
:100FC800014604AB284609F101090AF1040AAFF306
:100FD8000080E0B9D945EED10D213846FFF778FEFB
:100FE800049BAC62C5E90803062010E781460D2181
:100FF8003846FFF76DFEB9F1020F286225D12B465E
:10100800049A43F82C2F6B62AC620620FFE6464632
:101018002368DDF80C806AE72046FFF77DFC04347E
:101028000246AC6328461446AFF3008000283FF41C
:10103800EDAE384622460F21FFF770FE0720E6E6A0
:101048000D213846FFF744FE2862049B6B62DBE7FC
:101058000BF1010004EB80007AE700BF00000000FC
:101068000023A9E60123A7E60223A5E62DE9F0431C
:101078000646C3B015461C46042900F2BF80DFE8C7
:1010880001F09E57BD2D0300002C40F0B780102AB8
:1010980000F2B4800368D80600F1F98020AF384622
:1010A80000F098F9B46B394600234FF0010C0CFAA4
:1010B80003F22A42204603F1010303D050F8042B1F
:1010C8000A600446042B01F10401F0D13846B463E8
:1010D80000F076F9002043B0BDE8F083032C40F01F
:1010E8008D8094B204EB1243102B4FEA124500F2A4
:1010F800858003681F0700F1D28020AF384600F0D2
:101108003DF9B26B07EBC50154B10B46D01A01EBA0
:10111800C401E4001D5843F8045B8B42FAD1224411
:101128003846B26300F008F9002043B0BDE8F08308
:10113800012C4FEA124895B25CD0052C5ED108EB21
:101148000509B9F1200F59D8B8F10F0F79D9A94677
:10115800002D40F08A80B36B6DB320AF4FF00009CB
:1011680007EBC807043F03EBC50553F8041B47F812
:10117800041FAB42F9D1B9F1000F0FD06F464146B9
:10118800102938BF102107EBC101843903EBC905C9
:1011980053F8040B41F8040FAB42F9D1012C00F0CD
:1011A8008680B8F10F0FB56347D9B9F1000F02D0A7
:1011B800684600F0B9F8002043B0BDE8F083ECB908
:1011C800806B23461FFA82FC0124371D04FA03F2C0
:1011D80012EA0C0F014604D051F8042B47F82320DB
:1011E80008460133102BF1D115F40055E3D1B06353
:1011F800284604E008EB0503102B03D9022043B06E
:10120800BDE8F083B8F10F0FF8D83368DA0706D5D0
:10121800304623F0030340F8483B00F079F820AF4C
:10122800384600F075F8B36B002D97D11D4604358C
:10123800B563384600F068F8BDE720A800F06CF800
:10124800B3E7B9F1100F40D9A9F110093368D907EC
:1012580008D523F00103304643F0020340F8483B29
:1012680000F05EF8B9F1000F32D033685A0720D485
:10127800B8F10F0F25D96F463846C8F1100500F0B0
:1012880057F8002DB36B7FF77AAF20AF68E723F0EC
:101298001003336006F5E87000F09CF8FEE623F0D2
:1012A8000803036000F5A87000F068F825E720AF90
:1012B800BDE7304623F0040340F8D03B00F038F88F
:1012C800D6E720A800F02CF8D5E74FF00009BDE7D5
:1012D800B8F10F0F3FF63FAF20AF384600F020F8C7
:1012E800B36B002D7FF43AAF384600F015F862E78B
:1012F80000F1340191E838009C46A6464CF8045D9C
:1013080090E8FF0FE54600BD90EC210B704700BF49
:1013180080EC210B704700BF90EC200B704700BF9A
:1013280080EC200B704700BFD0EC200B704700BF4B
:10133800C0EC200B704700BFF0EC0201F0EC02118A
:10134800F0EC0221F0EC0231F0EC0241F0EC025139
:10135800F0EC0261F0EC0271F0EC0281F0EC029129
:10136800F0EC02A1F0EC02B1F0EC02C1F0EC02D119
:10137800F0EC02E1F0EC02F1704700BFE0EC020192
:10138800E0EC0211E0EC0221E0EC0231E0EC024179
:10139800E0EC0251E0EC0261E0EC0271E0EC028169
:1013A800E0EC0291E0EC02A1E0EC02B1E0EC02C159
:1013B800E0EC02D1E0EC02E1E0EC02F1704700BFA2
:1013C800B0FC0181B0FC0191B0FC01A1B0FC01B1FD
:1013D800704700BFA0FC0181A0FC0191A0FC01A105
:1013E800A0FC01B1704700BFEC4600B52DE90050E4
:1013F8002DE9FF1F4FF000032DE90C0001A9FFF7AD
:10140800E1FBDDF840E012B0704700BFEC4600B5E4
:101418002DE900502DE9FF1F4FF000032DE90C00C6
:1014280001A9FFF70BFCDDF840E012B0704700BFE0
:10143800EC4600B52DE900502DE9FF1F4FF00003E1
:101448002DE90C0001A9FFF71BFCDDF840E012B004
:10145800704700BFEC4600B52DE900502DE9FF1F8D
:101468004FF000032DE90C0001ABFFF7DFFBDDF8BF
:1014780040E012B0704700BFEC4600B52DE90050BF
:101488002DE9FF1F4FF000032DE90C0001AAFFF71B
:1014980051FCDDF840E012B0704700BF027A034605
:1014A8007AB9427AA2B14168013A10B44272086826
:1014B80003220C1D1A7202025C60000E10BC1A6036
:1014C80070470068013A1A7202021A60000E7047EB
:1014D800B020704700B585B0002303AA00921946D2
:1014E8000C22FFF7DDFB039805B05DF804FB00BF95
:1014F800F0E700BF2DE9F043054685B00E464FF0F2
:1015080000083046FFF7CAFFB028044600F0BA804A
:10151800070620D500F0F003802B4DD0902B36D055
:10152800A02B60D0B02B74D0C02B00F08B8000F0C3
:10153800F803D02B0BD100F007020132052342F447
:10154800002201212846FFF791FD0028D9D0092063
:1015580005B0BDE8F0838300DBB21F1D0DF10C0957
:1015680000231946CDF800900D222846FFF798FB76
:10157800039BCDF8009060064CBFDF1BFF180023CB
:101588000D22194628460397FFF7B0FBB9E700F08C
:101598000D030D2BDBD003AF002300F00F0219461B
:1015A80000972846FFF77CFB002300970D22194679
:1015B8002846FFF79BFBA4E73046FFF76FFF24029E
:1015C8002043B0F5004FC2D004010023A2B219464F
:1015D8002846FFF74BFD0028B9D114F4004F18BF77
:1015E8004FF001088DE7C24302F007034FF47F6212
:1015F8001A41010702F47F624FF0000348BF42F42A
:10160800804219462846FFF731FD00283FF479AF9C
:101618009DE7B1283BD0B22800F09380B32841D091
:1016280000F0FC03B42B92D000F007020132012332
:1016380042F4002219462846FFF718FD00283FF417
:1016480060AF84E7C6284AD0C72854D000F0F80312
:10165800C02B63D0C82868D0C9287FF478AF30463B
:10166800FFF71CFF020300F00F0002F470220130A4
:101678000243012105232846FFF7F8FC00283FF420
:1016880040AF64E7B8F1000F18D0002060E730469B
:10169800FFF704FF024600283FF459AF10F0F003AB
:1016A800C8D054E73046FFF7F9FE020300F00F03F5
:1016B800013302F470221A430123BBE703AC43460B
:1016C8000E22414600942846FFF7EAFA0094434662
:1016D8000F2241462846FFF709FB404638E73046C7
:1016E800FFF7DCFE020300F00F03013302F470225F
:1016F8001A4303239EE73046FFF7D0FE0246002830
:101708003FF425AF10F0F0037FF421AF0421284601
:10171800FFF7ACFC00283FF4F4AE18E700F00F0226
:101728000132032342F4202284E73046FFF7B6FE55
:1017380000F0F00200F00F031032013343EA0232E6
:1017480097E700230DF10C090D221946CDF80090FA
:101758002846FFF7A5FA3046FFF7A0FE02064FF02D
:1017680002040CD5039B00F07F00A04018440390AE
:101778003046FFF793FE030604F10704F2D4039BF7
:10178800CDF8009000F07F02A24003F501731A44DF
:101798000023039219460D222846FFF7A7FAB0E660
:1017A80010B5C26C536884B04FF0030C08321C02A9
:1017B80008461B0E01A9019402928DF80CC08DF801
:1017C8000D30FFF797FE04B010BD00BF08B5FFF756
:1017D8008FFE806C08BD00BF08B5FFF789FEC06C9E
:1017E800C379023300EB830008BD00BF704700BF18
:1017F80008B572B62021034801F044F9642001F0CD
:1018080063FCF7E70000024000B595B034220021E0
:1018180007A802F09BF8002302930393049305930F
:1018280006930093224A116C41F080511164126CA6
:1018380002F080520092009A01931E4A116841F406
:1018480040411160126802F440420192019A02225A
:10185800079201210A9110210B910D920E930823F2
:101868000F93B423109311921292139207A800F0C9
:10187800F5FDB0B901F02CFBA8B90F2302930223A0
:101888000393002304934FF4A05305934FF480531C
:101898000693052102A800F04BFC30B915B05DF89D
:1018A80004FBFFF7A5FFFFF7A3FFFFF7A1FF00BFAA
:1018B800003802400070004008B501F0D9FBFFF77E
:1018C800A3FF00F00BF801F01DFC00F051F801F047
:1018D8003BFC01F0BBFC01F0EFFFFCE730B589B041
:1018E80000240394049405940694079400941D4BD3
:1018F8001A6B42F004021A631A6B02F00402009297
:10190800009A01941A6B42F001021A631A6B02F0F2
:1019180001020192019A02941A6B42F002021A63C0
:101928001B6B03F002030293029B0F4D22462021FA
:10193800284601F0A1F84FF4005303934FF4041321
:101948000493059403A9094800F0AAFF20230393F0
:10195800012304930594069403A9284600F0A0FFE8
:1019680009B030BD003802400000024000080240C3
:1019780008B50A480A4B03604FF4E133436000237B
:101988008360C36003610C2242618361C36100F01C
:10199800CFF900B908BDFFF72BFFFBE74C0100208A
:1019A8000044004030B589B00023039304930593A5
:1019B800069307930268334B9A4201D009B030BDB1
:1019C80004460025019503F5FA331A6C42F40032F7
:1019D8001A641A6C02F400320192019A02951A6B89
:1019E80042F001021A631B6B03F001030293029B8E
:1019F8000C230393022304930323069307230793DB
:101A080003A9214800F04CFF2048214B03604FF008
:101A1800006343608560C5604FF48063036145617E
:101A28008561C5610562456201F0A0F818BB174BD6
:101A3800E3639C631748184B03604FF000634360EF
:101A4800402383600023C3604FF4806202614361D6
:101A58008361C3610362436201F088F870B90D4B7A
:101A6800A3639C6300221146262001F081FA2620F8
:101A780001F0B6FAA2E7FFF7BBFED8E7FFF7B8FE1A
:101A8800EDE700BF00440040000002408C00002049
:101A980088600240EC000020A0600240FEE7FEE7FC
:101AA800FEE7FEE7FEE770477047704708B501F0AC
:101AB800F9FA08BD08B5024801F01CF908BD00BFD5
:101AC8008C00002008B5024801F014F908BD00BFD9
:101AD800EC00002008B5024800F0E6F908BD00BF98
:101AE8004C01002008B5024801F0B9FC08BD00BF50
:101AF8009801002008B5024801F0B1FC08BD00BFFC
:101B08009801002008B5024801F0A9FC08BD00BFF3
:101B18009801002008B5024801F0A1FC08BD00BFEB
:101B28009801002000B583B0002100910C4B5A6C3D
:101B380042F480425A645A6C02F480420092009A3D
:101B480001911A6C42F080521A641B6C03F08053A6
:101B58000193019B072001F0F9F903B05DF804FB3C
:101B680000380240026802F10C0353E8003F23F4F6
:101B780090730C3242E800310029F3D1026802F177
:101B8800140353E8003F23F00103143242E8003104
:101B98000029F3D1036B012B05D0202380F84230B4
:101BA800002303637047026802F10C0353E8003F07
:101BB80023F010030C3242E800310029F3D1ECE79E
:101BC80090F84130DBB2212B01D0022070478368A6
:101BD800B3F5805F17D0036A5A1C02621A7803684B
:101BE8005A60C38C9BB2013B9BB2C3844BB9026859
:101BF800D36823F08003D3600268D36843F04003BE
:101C0800D360002070470369002BE4D1036A1B8866
:101C18000268C3F308035360036A02330362E0E710
:101C280038B504460268136923F44053C1680B436E
:101C3800136183680269134342691343C2691A43F3
:101C48000168CB6823F4164323F00C031343CB60DD
:101C58000268536923F4407381690B435361036835
:101C6800314A934206D002F58062934202D000F0D6
:101C780015FB01E000F022FBE369B3F5004F29D022
:101C88000021031849411B1841F10001C90041EA2C
:101C98005371DB00181863684FEA83024FEA9373A5
:101CA80041F10001FEF7B8FC204DA5FB00325109B7
:101CB800642303FB11031B013233A5FB03235B09D8
:101CC80003F0F00202EB011203F00F032168134442
:101CD8008B6038BD0023021843EB0301121841F151
:101CE8000001C90041EA5271D200101841F1000107
:101CF800626892185B41FEF78FFC0C4DA5FB003221
:101D08005109642303FB1103DB003233A5FB0323D2
:101D18005B095A0002F4F87202EB011203F00703A0
:101D2800216813448B60D4E7001001401F85EB51F4
:101D380060B310B5044690F8413013B3242384F8F7
:101D480041302268D36823F40053D3602046FFF75C
:101D580067FF2268136923F490431361226853696B
:101D680023F02A0353612268D36843F40053D360F5
:101D780000206064202384F8413084F84230606396
:101D880010BD80F84030FFF70DFED7E701207047FF
:101D9800704708B50168CA6822F04002CA6020226C
:101DA80080F84120FFF7F4FF002008BD7047704716
:101DB80008B5806B0023C385C384FFF7F8FF08BD0F
:101DC800704790F84230DBB2222B69D18368B3F5B3
:101DD800805F4FD0826AB3F5805F04D0002B56D164
:101DE8000369002B53D103685B681370836A01335E
:101DF8008362C38D9BB2013B9BB2C385002B51D13B
:101E080000B583B00268D36823F02003D36002686A
:101E1800D36823F48073D3600268536923F0010305
:101E28005361202380F8423000234363036B012B66
:101E380033D100230363026802F10C0353E8003F27
:101E480023F010030C3242E800310029F3D1036873
:101E58001A6812F0100F06D0002201921A68019237
:101E68005B680193019B818DFFF7AAFF002003B0F7
:101E78005DF804FB0269002AACD1826A03685B68DA
:101E8800C3F308031380836A02338362B1E70368EC
:101E98005B6803F07F031370A8E7FFF787FFE5E7A8
:101EA800022070470020704730B583B004460268AE
:101EB8001368D068516913F00F0505D113F0200F8E
:101EC80002D010F0200F19D12DB111F0010119D154
:101ED80010F4907F16D1216B01297DD013F0800F6B
:101EE80003D010F0800F40F0198113F0400F03D099
:101EF80010F0400F40F0168103B030BD2046FFF7C8
:101F080060FFF9E713F0010F06D010F4807F03D0CB
:101F1800626C42F00102626413F0040F04D019B13C
:101F2800626C42F00202626413F0020F04D019B12D
:101F3800626C42F00402626413F0080F07D010F0DC
:101F4800200F00D119B1626C42F008026264626C21
:101F5800002AD1D013F0200F02D010F0200F29D181
:101F680023685B6903F04003626C12F0080F00D12C
:101F780063B32046FFF7F6FD23685B6913F0400F53
:101F880020D0226802F1140353E8003F23F04003F5
:101F9800143242E800310029F3D1E36B73B1634A8C
:101FA8001A65E06B00F092FE0028A5D0E06B036D87
:101FB8009847A1E72046FFF704FFD1E72046FFF73F
:101FC800F6FE99E72046FFF7F2FE95E72046FFF771
:101FD800EEFE002363648FE713F0100F3FF47EAF2B
:101FE80010F0100F3FF47AAF0023019313680193A8
:101FF80053680193019B536913F0400F52D0E26B71
:1020080013685B689BB2002B3FF476AFA18D9942B1
:102018007FF672AFE385D369B3F5807F37D0226846
:1020280002F10C0353E8003F23F480730C3242E8BA
:1020380000310029F3D1226802F1140353E8003F6C
:1020480023F00103143242E800310029F3D1226859
:1020580002F1140353E8003F23F04003143242E82E
:1020680000310029F3D1202384F842300023236370
:10207800226802F10C0353E8003F23F010030C32EE
:1020880042E800310029F3D1E06B00F0D5FD0223CE
:102098006363A18DE38D9BB2C91A89B22046FFF70D
:1020A8008FFE29E7A18DE38D9BB2C91A89B2E38D12
:1020B8009BB2002B3FF420AF00293FF41DAF2268EC
:1020C80002F10C0353E8003F23F490730C3242E80A
:1020D80000300028F3D1226802F1140353E8003FCE
:1020E80023F00103143242E800300028F3D1202302
:1020F80084F8423000232363226802F10C0353E87A
:10210800003F23F010030C3242E800300028F3D1DE
:10211800022363632046FFF753FEEDE62046FFF7F0
:102128004FFDE9E62046FFF734FEE5E6B91D000855
:10213800002800F09B8070B50D4604464F4B1B6885
:1021480003F00F038B4208D2CBB24C4A13701368CA
:1021580003F00F038B4240F08B80236813F0020FCB
:1021680017D013F0040F04D0454A936843F4E053A2
:102178009360236813F0080F04D0414A936843F42E
:10218800604393603E4A936823F0F003A1680B43D1
:102198009360236813F0010F32D06368012B21D0BC
:1021A8009A1E012A25D9364A126812F0020F61D008
:1021B80033498A6822F0030213438B6000F07EFFE4
:1021C80006462F4B9B6803F00C036268B3EB820F43
:1021D80016D000F073FF801B41F288339842F0D983
:1021E800032042E0264A126812F4003FE0D10120A1
:1021F8003BE0234A126812F0007FD9D1012034E075
:102208001E4B1B6803F00F03AB4207D9EAB21B4B06
:102218001A701B6803F00F03AB422DD1236813F02B
:10222800040F06D0164A936823F4E053E1680B4381
:102238009360236813F0080F07D0114A936823F4BA
:102248006043216943EAC103936000F047F80C4BEF
:102258009B68C3F303130B4AD35CD8400A4B18603E
:102268000A4B186800F0DEFE002070BD01207047A0
:102278000120FAE70120F8E70120F6E7003C0240D8
:10228800003802405C3A00080800002004000020E2
:10229800014B1868704700BF0800002008B5FFF719
:1022A800F7FF044B9B68C3F38223034AD35CD840EF
:1022B80008BD00BF003802406C3A000808B5FFF7B7
:1022C800E7FF044B9B68C3F34233034AD35CD8400F
:1022D80008BD00BF003802406C3A000808B55C4BE6
:1022E8009B6803F00C03082B07D00C2B5BD0042B46
:1022F80001D0584808BD5848FCE7554B5A6802F0C9
:102308003F025B6813F4800F2AD0514B5968C1F320
:10231800881C4FEA4C11B1EB0C006EEB0E0E4FEA25
:102328008E1343EA90638101091A63EB0E03DB0005
:1023380043EA5173C90011EB0C0C43F10003590235
:1023480000234FEA4C2041EADC51FEF765F9404B87
:102358005B68C3F3014301335B00B0FBF3F0C9E7EB
:102368003B4B5968C1F3881C4FEA4C11B1EB0C0088
:102378006EEB0E0E4FEA8E1343EA90638101091A41
:1023880063EB0E03DB0043EA5173C90011EB0C0C3D
:1023980043F10003990200234FEA8C2041EA9C5143
:1023A800FEF73AF9D3E72A4B5A6802F03F025B6816
:1023B80013F4800F28D0264B5968C1F3881C4FEAC4
:1023C8004C11B1EB0C006EEB0E0E4FEA8E1343EA84
:1023D80090638101091A63EB0E03DB0043EA517332
:1023E800C90011EB0C0C43F10003590200234FEA1A
:1023F8004C2041EADC51FEF70FF9154B5B68C3F33B
:102408000273B0FBF3F075E7114B5968C1F3881CF0
:102418004FEA4C11B1EB0C006EEB0E0E4FEA8E1327
:1024280043EA90638101091A63EB0E03DB0043EA78
:102438005173C90011EB0C0C43F1000399020023FE
:102448004FEA8C2041EA9C51FEF7E6F8D5E700BF39
:10245800003802400024F40000127A00002800F03E
:10246800018270B582B00446036813F0010F41D0B1
:10247800994B9B6803F00C03042B32D0964B9B6856
:1024880003F00C03082B27D0934B9B6803F00C0335
:102498000C2B59D06368B3F5803F5BD0B3F5A02F00
:1024A8005ED08D4B1A6822F480321A601A6822F4C2
:1024B80080221A606368002B5CD000F0FFFD05469F
:1024C800854B1B6813F4003F14D100F0F7FD401B47
:1024D8006428F5D90320CCE17F4B5B6813F4800FA7
:1024E800D2D07D4B1B6813F4003F03D06368002BE8
:1024F80000F0BA81236813F0020F60D0764B9B6816
:1025080013F00C0F4AD0744B9B6803F00C03082B94
:102518003FD0714B9B6803F00C030C2B69D0E36828
:10252800002B75D06D4B01221A6000F0C7FD0546DF
:10253800694B1B6813F0020F61D100F0BFFD401B0F
:102548000228F5D9032094E1634B5B6813F4800FEC
:10255800A0D0C6E7604A136843F480331360A9E744
:102568005D4B1A6842F480221A601A6842F480327D
:102578001A609FE700F0A2FD0546574B1B6813F44D
:10258800003FB7D000F09AFD401B6428F5D903201E
:102598006FE1514B5B6813F4800FBAD14E4B1B6847
:1025A80013F0020F03D0E368012B40F05F814A4A21
:1025B800136823F0F803216943EAC1031360236811
:1025C80013F0080F49D06369002B33D0434B012225
:1025D800C3F8802E00F072FD05463F4B5B6F13F089
:1025E800020F3AD100F06AFD401B0228F5D90320FA
:1025F8003FE1394B5B6813F4800F90D1CEE7364A40
:10260800136823F0F803216943EAC1031360D6E78E
:10261800324B00221A6000F051FD05462E4B1B6814
:1026280013F0020FCBD000F049FD401B0228F5D96A
:1026380003201EE1294B0022C3F8802E00F03EFD46
:102648000546254B5B6F13F0020F06D000F036FDF0
:10265800401B0228F5D903200BE1236813F0040F6F
:1026680076D01D4B1B6C13F0805F33D10023019390
:10267800194B1A6C42F080521A641B6C03F0805399
:102688000193019B0125164B1B6813F4807F29D009
:10269800A368012B3AD0052B3ED00F4B1A6F22F0BE
:1026A80001021A671A6F22F004021A67A368002B46
:1026B8003CD000F003FD0646074B1B6F13F0020FDA
:1026C80045D100F0FBFC801B41F288339842F3D9D6
:1026D8000320CEE00025D6E700380240000047423C
:1026E800007000406B4A136843F48073136000F075
:1026F800E5FC0646674B1B6813F4807FC8D100F0E1
:10270800DDFC801B0228F5D90320B2E0624A136F72
:1027180043F001031367C9E75F4B1A6F42F00402E5
:102728001A671A6F42F001021A67BFE700F0C6FC89
:102738000646594B1B6F13F0020F08D000F0BEFC81
:10274800801B41F288339842F3D9032091E0EDB918
:10275800A369002B00F08C804F4A926802F00C02AB
:10276800082A54D0022B17D04C4B00221A6600F0CE
:10277800A5FC0446484B1B6813F0007F45D000F0C9
:102788009DFC001B0228F5D9032072E0424A136C15
:1027980023F080531364DBE7404B00221A6600F0F5
:1027A8008DFC05463C4B1B6813F0007F06D000F0FB
:1027B80085FC401B0228F5D903205AE0E369226A08
:1027C8001343626A43EA8213A26A5208013A43EA4F
:1027D8000243E26A43EA0263226B43EA02732E4A27
:1027E80053602E4B01221A6600F068FC04462A4BFF
:1027F8001B6813F0007F06D100F060FC001B022864
:10280800F5D9032035E0002033E0002031E0012B2A
:1028180031D0214B5B6803F48001E26991422CD1ED
:1028280003F03F02216A8A4229D1616A47F6C072E1
:102838001A40B2EB811F24D103F44031A26A520836
:10284800013AB1EB024F1ED103F07062E16AB2EBBC
:10285800016F1AD103F0E043226BB3EB027F16D16C
:10286800002006E001207047012002E0012000E07E
:10287800002002B070BD0120FBE70120F9E701202C
:10288800F7E70120F5E70120F3E70120F1E7012050
:10289800EFE700BF007000400038024000004742E8
:1028A80000230F2B00F2DE8070B582B060E08568EF
:1028B8005E000324B44025EA0405CC68B4402C43E8
:1028C8008460456825EA02054C68C4F300129A4002
:1028D8002A4342605AE0DC08083450F8246003F0C8
:1028E800070295000F22AA4026EA020E0A69AA40AA
:1028F80042EA0E0240F824205CE0062200E00022B2
:1029080002FA0EF22A430234574D45F82420574A5A
:1029180094686FEA0C0224EA0C054E6816F4801FCE
:1029280001D04CEA0405514CA560E46802EA0405AC
:102938004E6816F4001F01D04CEA04054B4CE560C4
:10294800646802EA04054E6816F4003F01D04CEAB8
:102958000405464C6560246822404D6815F4803FA4
:1029680001D04CEA0402414C226001330F2B77D886
:1029780001229A400C6804EA020C32EA0404F4D1F9
:102988004C6804F00304013C012C90D94A6802F019
:102998000302032A09D0C4685D000322AA4024EA7E
:1029A80002048A68AA402243C2604A6802F003020D
:1029B800022A90D004684FEA430E032202FA0EF26C
:1029C80024EA02044A6802F0030202FA0EF22243E1
:1029D80002604A6812F4403FC7D000220192244A9C
:1029E800546C44F480445464526C02F48042019262
:1029F800019A9C08A51C1C4A52F8255003F00302B2
:102A08004FEA820E0F2202FA0EF225EA0205194A4F
:102A180090423FF474AF02F58062904216D002F5FE
:102A28008062904214D002F58062904212D002F582
:102A38008062904210D002F5806290420ED002F57A
:102A4800806290423FF459AF072259E7012257E7C5
:102A5800022255E7032253E7042251E705224FE7F4
:102A680002B070BD704700BF00380140003C014013
:102A780000380240000002400AB181617047090431
:102A880081617047436901EA030221EA030141EACF
:102A9800024181617047000010B40368D9B210394F
:102AA8000C4AA2FB014212090B4CA25CC2655F29C9
:102AB80009D923F47F7323F0030304338365806DFE
:102AC8005DF8044B704723F47F7323F00303836599
:102AD800F5E700BFABAAAAAA543A0008836A82693C
:102AE80092B9012B0AD0022B02D00BB100207047FB
:102AF800C36A13F0807F28D100207047C36AB3F1FE
:102B0800C07F24D000207047B2F5005F09D0022BA7
:102B180025D9032B25D1C36A13F0807F23D1002048
:102B28007047032B03D8DFE803F01404140A0020CD
:102B38007047C36A13F0807F0DD100207047C36AC5
:102B4800B3F1C07F09D000207047012070470120F1
:102B5800704701207047012070470120704701200D
:102B680070470020704701207047000070B5044688
:102B780000F0A4FA002C5BD00546022384F8353017
:102B8800002384F834302268136823F001031360AB
:102B980023681A6812F0010F0AD000F08FFA431B5D
:102BA800052BF5D920236365032084F8350070BD13
:102BB8001A68204810406168A2680A43E1680A431D
:102BC80021690A4361690A43A1690A43E1690A4321
:102BD800216A0A430243616A04291ED01A602668E2
:102BE800756925F00705636A1D43042B07D1A36A9D
:102BF8001D43E36A1BB12046FFF770FF90B975616A
:102C08002046FFF749FFE26D3F2393408360002091
:102C18006065012384F83530C9E7E16A206B014318
:102C28000A43DBE740236365012084F83500BEE7EB
:102C38000120BCE73F8010F070B50446866D00F0B7
:102C48003DFA94F83530DBB2022B06D08023636559
:102C5800002384F83430012070BD054622681368CB
:102C680023F0160313602268536923F0800353612D
:102C7800236CE3B12268136823F008031360226809
:102C8800136823F00103136023681B6813F0010F16
:102C980011D000F013FA431B052BF5D920236365E7
:102CA800032084F83500002384F83430D4E7A36C7B
:102CB800002BDFD1E3E7E26D3F239340B3600123AC
:102CC80084F83530002084F83400C5E790F83530B2
:102CD800DBB2022B03D08023436501207047052314
:102CE80080F835300268136823F001031360002070
:102CF80070470000F0B583B0044600230193724B7F
:102D08001D68724BA3FB0535AD0A876D3E68C26D21
:102D180008239340334210D003681A6812F0040F56
:102D28000BD01A6822F004021A60C26D082393407F
:102D3800BB60436D43F001034365E26D012393409B
:102D4800334209D02268526912F0800F04D0BB6068
:102D5800636D43F002036365E26D042393403342DD
:102D680009D02268126812F0020F04D0BB60636DAC
:102D780043F004036365E26D10239340334224D08B
:102D88002268126812F0080F1FD0BB6023681A6807
:102D980012F4802F0DD01B6813F4002F04D1236C7C
:102DA8009BB12046984710E0A36C73B12046984722
:102DB8000BE01A6812F4807F03D11A6822F0080227
:102DC8001A60236C0BB120469847E26D202393408C
:102DD800334255D02268126812F0100F50D0BB60F1
:102DE80094F83530DBB2052B0ED023681A6812F43C
:102DF800802F33D01B6813F4002F2AD1636C002B6B
:102E08003ED0204698473BE02268136823F016031B
:102E180013602268536923F080035361236CA3B1C4
:102E28002268136823F008031360E26D3F23934080
:102E3800BB60012384F83530002384F83430236DD7
:102E4800002B3FD0204698473CE0A36C002BE7D1ED
:102E5800EBE7E36BA3B12046984711E01A6812F438
:102E6800807F09D11A6822F010021A60012384F8C1
:102E78003530002384F83430E36B0BB12046984793
:102E8800636DFBB1636D13F0010F17D0052384F850
:102E980035302268136823F001031360019B013366
:102EA8000193AB4204D823681B6813F0010FF5D1D6
:102EB800012384F83530002384F83430E36C0BB1F7
:102EC8002046984703B0F0BD08000020B5814E1B8E
:102ED80010B582B000230193194B1A6C42F080524E
:102EE8001A641B6C03F080530193019B154B01225C
:102EF8001A6400F0E3F80446134B5B6813F4803F50
:102F080008D100F0DBF8001BB0F57A7FF4D9032074
:102F180002B010BD0B4B01225A6400F0CFF80446F2
:102F2800094B5B6813F4003F07D100F0C7F8001B9A
:102F3800B0F57A7FF4D90320EAE70020E8E700BF7C
:102F48000038024000000E4200700040074AD36873
:102F580023F4E0631B041B0C000200F4E06003434D
:102F680043F0BF6343F40033D360704700ED00E0E3
:102F780000B5194BDB68C3F30223C3F1070CBCF19E
:102F8800040F28BF4FF0040C03F1040EBEF1060F26
:102F980018D9033B4FF0FF3E0EFA0CFC21EA0C0156
:102FA80099400EFA03F322EA0303194300280BDBC6
:102FB8000901C9B200F1604000F5614080F80013D2
:102FC8005DF804FB0023E5E700F00F000901C9B232
:102FD800024B1954F4E700BF00ED00E014ED00E0E7
:102FE800002807DB00F01F02400901239340024A32
:102FF80042F82030704700BF00E100E00138B0F12E
:10300800807F0BD24FF0E0235861054AF02182F807
:1030180023100020986107221A6170470120704729
:1030280000ED00E010B504460E4B18784FF47A73A3
:10303800B3FBF0F30C4A1068B0FBF3F0FFF7DEFFC8
:1030480068B90F2C01D901200AE0002221464FF06F
:10305800FF30FFF78DFF054B1C60002000E00120CA
:1030680010BD00BF00000020080000200400002060
:1030780008B50B4B1A6842F400721A601A6842F4D9
:1030880080621A601A6842F480721A600320FFF79F
:103098005DFF0020FFF7C6FFFEF744FD002008BDD6
:1030A800003C0240034A1168034B1B780B44136031
:1030B800704700BF9401002000000020014B1868F1
:1030C800704700BF9401002038B50446FFF7F6FFAB
:1030D8000546B4F1FF3F02D0044B1B781C44FFF7B0
:1030E800EDFF401BA042FAD338BD00BF000000200E
:1030F800034AD2F8883043F47003C2F88830704726
:1031080000ED00E010B582B0002401940D4B1A6B5D
:1031180042F400121A631B6B03F400130193019B22
:10312800224621461020FFF723FF1020FFF758FF03
:10313800224621461120FFF71BFF1120FFF750FF01
:1031480002B010BD0038024008B50D480D4B0360B1
:103158000323436000238360C3604FF4302202617D
:103168004FF480124261037643768376C376037701
:10317800437700F0C1F800B908BDFEF739FBFBE75B
:10318800980100200068004010B588B00023039320
:10319800049305930693079302682A4B9A4201D039
:1031A80008B010BD0024009403F5E8331A6C42F00F
:1031B80080621A641A6C02F080620092009A01948C
:1031C8001A6C42F000721A641A6C02F000720192D2
:1031D800019A02941A6B42F002021A631B6B03F005
:1031E80002030293029B4FF4405303930223049378
:1031F800032306930923079303A91348FFF750FBFA
:10320800224621463F20FFF7B3FE3F20FFF7E8FEA6
:10321800224621464020FFF7ABFE4020FFF7E0FEA4
:10322800224621464120FFF7A3FE4120FFF7D8FEA2
:10323800224621464220FFF79BFE4220FFF7D0FEA0
:10324800AEE700BF006800400004024008B50B4824
:103258000B4B03600B4B436000238360C3604FF448
:103268008042026143618361C361036200F01CFA1A
:1032780000B908BDFEF7BCFAFBE700BFC00100209B
:1032880000540040801A060030B589B0002303932B
:1032980004930593069307930268144B9A4201D04E
:1032A80009B030BD00250195114C236B43F0020392
:1032B8002363236B03F002030193019B4FF44073D4
:1032C800039312230493032306930423079303A968
:1032D8000848FFF7E5FA0295236C43F400132364CA
:1032E800236C03F400130293029BD9E700540040B7
:1032F8000038024000040240002800F0A18038B5E0
:10330800044690F82030D3B12268136843F00103D3
:103318001360FFF7D3FE054623685A6812F0010FC1
:1033280010D1FFF7CBFE401B0A28F5D9636A43F496
:1033380000336362052384F82030012038BDFFF78D
:1033480023FFE1E71A6822F002021A60FFF7B6FECF
:10335800054623685A6812F0020F0DD0FFF7AEFE3B
:10336800401B0A28F5D9636A43F4003363620523D6
:1033780084F820300120E1E7227E012A3DD01A6836
:1033880022F080021A60637E012B3BD0226813680A
:1033980023F040031360A37E012B39D02268136801
:1033A80023F020031360E37E012B37D022681368D3
:1033B80043F010031360237F012B35D02268136874
:1033C80023F008031360637F012B33D0226813684E
:1033D80023F004031360A368E268134322691343CC
:1033E800626913436268013A21681343CB61002084
:1033F8006062012384F82030A0E71A6842F0800256
:103408001A60C0E72268136843F040031360C2E7FC
:103418002268136843F020031360C4E72268136826
:1034280023F010031360C6E72268136843F008030B
:103438001360C8E72268136843F004031360CAE7FF
:103448000120704770477047704770477047704752
:1034580070477047704770477047704770472DE94D
:10346800F84F054603685C69D3F804809F68D3F871
:103478000CB0D3F810A0D3F8189014F001063BD084
:1034880017F0010616D001229A6017F0020F08D132
:1034980017F0040F0CD117F0080606D04FF4805629
:1034A80008E0FFF7CFFF002604E0FFF7CEFF01E0BA
:1034B8004FF4006617F4807F0DD02B684FF48072AC
:1034C8009A6017F4007F40F0868017F4806F00F050
:1034D800868046F4005617F4803F0DD02B684FF4D1
:1034E80080329A6017F4003F40F0838017F4802FF1
:1034F80000F0838046F4004614F0080F07D01BF054
:10350800100F04D046F400762B681022DA6014F00D
:10351800040F02D01BF0080F79D114F0020F04D069
:103528002B68DB6813F0030F78D114F0400F07D035
:103538001AF0100F04D046F480662B6810221A6126
:1035480014F0200F02D01AF0080F6BD114F0100FEE
:1035580004D02B681B6913F0030F6AD114F4003FE1
:1035680002D018F0100F68D114F4803F02D018F080
:10357800080F69D114F4004F7AD018F0040F74D0F2
:1035880014F4807F04D019F0010F01D046F0010631
:1035980014F4007F04D019F0020F01D046F002069F
:1035A80014F4806F04D019F0040F01D046F004061B
:1035B80014F4006F59D019F0700956D0B9F1400FC2
:1035C80065D058D8B9F1200F5ED0B9F1300F42D18B
:1035D80046F0200644E02846FFF735FF7BE717F45E
:1035E800006F02D046F4804675E72846FFF72EFFA5
:1035F80071E72846FFF728FF7EE717F4002F02D06F
:1036080046F4803678E72846FFF721FF74E72B68F1
:103618000822DA602846FFF71CFF7EE72846FFF7F6
:1036280017FF82E72B6808221A612846FFF713FF65
:103638008CE72846FFF70EFF90E72B6810225A60A8
:103648002846FFF709FF8FE72B6808225A602846AB
:10365800FFF703FF8EE7B9F1100F01D146F0080616
:103668002A68936923F0700393612B6804225A60D7
:103678009EB9BDE8F88FB9F1500F0BD0B9F1600FC2
:10368800EED146F48076EBE746F01006E8E746F020
:103698004006E5E746F08006E2E76B6A1E436E6285
:1036A8002846FFF7DBFEE4E7002800F0CC8070B581
:1036B800044690F83D30002B77D0242384F83D3021
:1036C8002268136823F0010313602268136843F427
:1036D800004313602268136823F400431360FEF765
:1036E800DDFD62685A4B9A4264D85A4B98428CBFA7
:1036F80000230123002B40F0A8805749A1FB00318B
:103708008B0C25686A6822F03F0242EA91426A609F
:1037180021680A6A22F03F0266684D4DAE424FD8D2
:10372800013313430B622168CA6922F44F4222F025
:10373800FF026668464B9E424CD8431E7600B3FB98
:10374800F6F3013340F6FC70034278D0C3F30B0361
:103758001343CB6121680B6823F0C003E269206A38
:10376800024313430B6021688B6823F4034323F05F
:10377800FF032269E068024313438B602168CB682A
:1037880023F0FF036269A06902431343CB602268F8
:10379800136843F00103136000202064202384F899
:1037A8003D30206384F83E0070BD80F83C30FFF760
:1037B8006BFD82E7294B98428CBF0023012399E7D0
:1037C8004FF4967505FB03F3254DA5FB03539B09A1
:1037D8000133A6E7A368BBB9451E06EB460CB5FB4B
:1037E800FCF50135C5F30B05B5FA85F56D0945BB43
:1037F800C3B9013806EB4603B0FBF3F30133C3F357
:103808000B0343F40043A3E7451E06EB860C0CEBC1
:103818008C0CB5FBFCF50135C5F30B05B5FA85F540
:103828006D09E4E7013806EB860303EB8303B0FB7D
:10383800F3F30133C3F30B0343F4404388E7042352
:1038480086E7012384E7012070470120ACE700BF29
:10385800A08601007F841E0083DE1B43FF083D0015
:10386800D34D6210DFF834D0FFF742FC0C480D4905
:103878000D4A002302E0D458C4500433C4188C42C3
:10388800F9D30A4A0A4C002301E013600432A24229
:10389800FBD300F037F8FEF70FF87047000002205E
:1038A8000000002070000020BC3B000870000020D1
:1038B80020020020FEE7000010B5FA20FFF704FC04
:1038C80020210D48FFF7DEF80C4A13680133136016
:1038D8000B4C2068FCF7F8FD05A3D3E90023FCF79F
:1038E80095FCFCF749FE206010BD00BFAFF30080D7
:1038F8009A9999999999B93F0000024014020020B9
:103908001802002070B50D4D0D4C641BA410002644
:10391800A64209D10B4D0C4C00F08CF8641BA41086
:103928000026A64205D170BD55F8043B98470136DC
:10393800EEE755F8043B98470136F2E7B43B000838
:10394800B43B0008B43B0008B83B000802440346F7
:10395800934200D1704703F8011BF9E70A449142EA
:1039680000F1FF3300D1704710B511F8014B03F88F
:10397800014F9142F9D110BD08B5062000F02CF88E
:10398800012000F055F81F2938B504460D4604D922
:10399800162303604FF0FF3038BD426C12B152F865
:1039A80021304BB9204600F031F82A46014620461E
:1039B800BDE8384000F018B8012B0AD0591C03D1D3
:1039C800162303600120E7E7002442F82540284633
:1039D80098470020E0E70000024B01461868FFF70F
:1039E800D2BF00BF0C00002038B5074D00230446A5
:1039F800084611462B6000F013F8431C02D12B68CF
:103A080003B1236038BD00BF1C02002000F000B8DD
:103A1800024B58221A604FF0FF3070471C020020FA
:103A2800024B58221A604FF0FF3070471C020020EA
:103A3800FEE700BFF8B500BFF8BC08BC9E4670475B
:0C3A4800F8B500BFF8BC08BC9E467047F3
:103A5400000610160006101600000000000000000A
:103A64000102030406070809000000000102030420
:103A74000000000000000000000000000000000042
:103A84000000000000000000000000000000000032
:103A94000000000000000000000000000000000022
:103AA4000000000000000000000000000000000012
:103AB4000000000000000000000000000000000002
:103AC40000000000000000000000000000000000F2
:103AD40008B10181B0B000840000000008B1018188
:083AE400B0B0008400000000F6
:103AEC0064CBFF7F01000000C4CEFF7FB0A9028031
:103AFC0058CFFF7FB0B0A880A8CFFF7F0100000097
:103B0C00B4CFFF7FB0B0AA80E8CFFF7FAE71B28098
:103B1C00ACD0FF7F01000000A8D0FF7FAB3F388006
:103B2C0008D1FF7F0100000010D1FF7FB0B0AA8048
:103B3C004CD1FF7F01000000F8D1FF7FAA0DB280AD
:103B4C0074D2FF7FB0AF088014D5FF7F0100000056
:103B5C0018D5FF7FAD3F028094D7FF7F0100000096
:103B6C0070D9FF7F0084048084D9FF7F010000009E
:103B7C0080D9FF7FB0AD048024DCFF7FB0A8038028
:103B8C0048DCFF7F44FFFF7F4CDCFF7F48FFFF7F5B
:103B9C0058DCFF7F010000001CFDFF7FB0B0A88047
:083BAC0060FDFF7F0100000035
:043BB400ED01000817
:043BB800C901000837
:103BBC0001000000100000000024F40010000020A0
:103BCC0000000000943A0008B43A0008743A000867
:103BDC0000000000000000000000000000000000D9
:103BEC0000000000000000000000000000000000C9
:103BFC0000000000000000000000000000000000B9
:103C0C0000000000000000000000000000000000A8
:103C1C000000000000000000000000000000000098
:040000050800386D4A
:00000001FF
