:020000040800F2
:10000000000002202543000881200008832000080A
:1000100085200008872000088920000800000000D3
:100020000000000000000000000000008B2000081D
:100030008D200008000000008F200008912000089B
:1000400075430008754300087543000875430008B0
:1000500075430008754300087543000875430008A0
:100060007543000875430008754300087543000890
:100070007543000875430008754300087543000880
:1000800099200008A920000875430008B92000083D
:10009000C9200008D92000087543000875430008EE
:1000A0007543000875430008754300087543000850
:1000B0007543000875430008754300087543000840
:1000C0007543000875430008754300087543000830
:1000D0007543000875430008E920000875430008CF
:1000E0007543000875430008754300087543000810
:1000F0007543000875430008754300087543000800
:1001000075430008754300087543000875430008EF
:1001100075430008754300087543000875430008DF
:1001200075430008754300087543000875430008CF
:10013000754300080000000000000000754300083F
:1001400075430008754300087543000875430008AF
:10015000754300087543000875430008754300089F
:10016000754300087543000875430008754300088F
:10017000754300087543000875430008000000003F
:1001800000000000754300080000000000000000AF
:1001900075430008000000000000000075430008DF
:1001A000000000000000000000000000754300088F
:1001B000754300087543000875430008754300083F
:0401C000754300087B
:1001D00010B5054C237833B9044B13B10448AFF381
:1001E00000800123237010BDE80100200000000002
:1001F0001C75000808B5034B1BB103490348AFF356
:10020000008008BD00000000EC0100201C75000803
:10021000034613F8012B002AFBD1181A0138704746
:1002200001F0FF01102A2BDB10F0070F08D010F8A7
:10023000013B013A8B422DD010F0070F42B3F6D1AB
:10024000F0B441EA012141EA014122F007047FF0C4
:1002500000070023F0E80256083C85EA010586EA1B
:10026000010685FA47F5A3FA87F586FA47F6A5FA57
:1002700087F68EB9EED1F0BC01F0FF0102F0070263
:1002800032B110F8013B013A83EA010313B1F8D10E
:100290000020704701387047002D06BF35460338EF
:1002A000073815F0010F07D1013015F4807F02BF28
:1002B000013015F4C03F0130F0BC0138704700BF79
:1002C00081F0004102E000BF83F0004330B54FEA07
:1002D00041044FEA430594EA050F08BF90EA020F74
:1002E0001FBF54EA000C55EA020C7FEA645C7FEA07
:1002F000655C00F0E2804FEA5454D4EB5555B8BF2A
:100300006D420CDD2C4480EA020281EA030382EA9A
:10031000000083EA010180EA020281EA0303362D2C
:1003200088BF30BD11F0004F4FEA01314FF4801CFF
:100330004CEA113102D0404261EB410113F0004F11
:100340004FEA03334CEA133302D0524263EB4303C8
:1003500094EA050F00F0A780A4F10104D5F1200E66
:100360000DDB02FA0EFC22FA05F2801841F10001C1
:1003700003FA0EF2801843FA05F359410EE0A5F195
:1003800020050EF1200E012A03FA0EFC28BF4CF0C6
:10039000020C43FA05F3C01851EBE37101F000457C
:1003A00007D54FF0000EDCF1000C7EEB00006EEB89
:1003B0000101B1F5801F1BD3B1F5001F0CD3490813
:1003C0005FEA30004FEA3C0C04F101044FEA44526A
:1003D00012F5800F80F09A80BCF1004F08BF5FEAF1
:1003E000500C50F1000041EB045141EA050130BDD1
:1003F0005FEA4C0C404141EB0101013C28BFB1F5E3
:10040000801FE9D291F0000F04BF01460020B1FA2D
:1004100081F308BF2033A3F10B03B3F120020CDA00
:100420000C3208DD02F1140CC2F10C0201FA0CF0DE
:1004300021FA02F10CE002F11402D8BFC2F1200C43
:1004400001FA02F120FA0CFCDCBF41EA0C019040F9
:10045000E41AA2BF01EB0451294330BD6FEA040442
:100460001F3C1CDA0C340EDC04F11404C4F120022D
:1004700020FA04F001FA02F340EA030021FA04F33F
:1004800045EA030130BDC4F10C04C4F1200220FA96
:1004900002F001FA04F340EA0300294630BD21FAD4
:1004A00004F0294630BD94F0000F83F4801306BF9A
:1004B00081F480110134013D4EE77FEA645C18BF8E
:1004C0007FEA655C29D094EA050F08BF90EA020F25
:1004D00005D054EA000C04BF1946104630BD91EA1D
:1004E000030F1EBF0021002030BD5FEA545C05D120
:1004F0004000494128BF41F0004130BD14F580045F
:100500003CBF01F5801130BD01F0004545F0FE41D2
:1005100041F470014FF0000030BD7FEA645C1ABF07
:10052000194610467FEA655C1CBF0B46024650EA3E
:10053000013406BF52EA033591EA030F41F400216A
:1005400030BD00BF90F0000F04BF0021704730B5F0
:100550004FF4806404F132044FF000054FF00001C5
:1005600050E700BF90F0000F04BF0021704730B586
:100570004FF4806404F1320410F0004548BF40425B
:100580004FF000013EE700BF42004FEAE2014FEAB0
:1005900031014FEA02701FBF12F07F4393F07F4F8B
:1005A00081F06051704732F07F4208BF704793F08E
:1005B0007F4F04BF41F40021704730B54FF46074A1
:1005C00001F0004521F000411CE700BF50EA0102A4
:1005D00008BF704730B54FF000050AE050EA01024D
:1005E00008BF704730B511F0004502D5404261EBBD
:1005F00041014FF4806404F132045FEA915C3FF4FE
:10060000D8AE4FF003025FEADC0C18BF03325FEA9A
:10061000DC0C18BF033202EBDC02C2F1200300FA4B
:1006200003FC20FA02F001FA03FE40EA0E0021FA70
:1006300002F11444BDE600BF70B54FF0FF0C4CF45E
:10064000E06C1CEA11541DBF1CEA135594EA0C0F10
:1006500095EA0C0F00F0DEF82C4481EA030621EA4B
:100660004C5123EA4C5350EA013518BF52EA033586
:1006700041F4801143F4801338D0A0FB02CE4FF038
:100680000005E1FB02E506F00042E0FB03E54FF068
:100690000006E1FB03569CF0000F18BF4EF0010E60
:1006A000A4F1FF04B6F5007F64F5407404D25FEA5C
:1006B0004E0E6D4146EB060642EAC62141EA55510F
:1006C0004FEAC52040EA5E504FEACE2EB4F1FD0C51
:1006D00088BFBCF5E06F1ED8BEF1004F08BF5FEACF
:1006E000500E50F1000041EB045170BD06F0004681
:1006F00046EA010140EA020081EA0301B4EB5C042E
:10070000C2BFD4EB0C0541EA045170BD41F4801125
:100710004FF0000E013C00F3AB8014F1360FDEBF4A
:10072000002001F0004170BDC4F10004203C35DA26
:100730000C341BDC04F11404C4F1200500FA05F3A9
:1007400020FA04F001FA05F240EA020001F000424A
:1007500021F0004110EBD37021FA04F642EB0601C0
:100760005EEA430E08BF20EAD37070BDC4F10C04EA
:10077000C4F1200500FA04F320FA05F001FA04F2AE
:1007800040EA020001F0004110EBD37041F100019A
:100790005EEA430E08BF20EAD37070BDC4F12005A5
:1007A00000FA05F24EEA020E20FA04F301FA05F20D
:1007B00043EA020321FA04F001F0004121FA04F2B5
:1007C00020EA020000EBD3705EEA430E08BF20EA85
:1007D000D37070BD94F0000F0FD101F000464000BF
:1007E00041EB010111F4801F08BF013CF7D041EA41
:1007F000060195F0000F18BF704703F00046520045
:1008000043EB030313F4801F08BF013DF7D043EA15
:100810000603704794EA0C0F0CEA135518BF95EACB
:100820000C0F0CD050EA410618BF52EA4306D1D152
:1008300081EA030101F000414FF0000070BD50EA71
:10084000410606BF1046194652EA430619D094EAFB
:100850000C0F02D150EA013613D195EA0C0F05D1E5
:1008600052EA03361CBF104619460AD181EA030139
:1008700001F0004141F0FE4141F470014FF00000F1
:1008800070BD41F0FE4141F4780170BD70B54FF08C
:10089000FF0C4CF4E06C1CEA11541DBF1CEA13550C
:1008A00094EA0C0F95EA0C0F00F0A7F8A4EB0504EE
:1008B00081EA030E52EA03354FEA013100F08880E5
:1008C0004FEA03334FF0805545EA131343EA1263AE
:1008D0004FEA022245EA111545EA10654FEA002663
:1008E0000EF000419D4208BF964244F1FD0404F51C
:1008F000407402D25B084FEA3202B61A65EB030578
:100900005B084FEA32024FF480104FF4002CB6EB34
:10091000020E75EB030E22BFB61A754640EA0C00B4
:100920005B084FEA3202B6EB020E75EB030E22BFF4
:10093000B61A754640EA5C005B084FEA3202B6EB35
:10094000020E75EB030E22BFB61A754640EA9C00F4
:100950005B084FEA3202B6EB020E75EB030E22BFC4
:10096000B61A754640EADC0055EA060E18D04FEA82
:10097000051545EA16754FEA06164FEAC30343EA22
:1009800052734FEAC2025FEA1C1CC0D111F4801FEF
:100990000BD141EA00014FF000004FF0004CB6E7E8
:1009A00011F4801F04BF01430020B4F1FD0C88BF87
:1009B000BCF5E06F3FF6AFAEB5EB030C04BFB6EB92
:1009C000020C5FEA500C50F1000041EB045170BD85
:1009D0000EF0004E4EEA113114EB5C04C2BFD4EBB2
:1009E0000C0541EA045170BD41F480114FF0000E36
:1009F000013C90E645EA060E8DE60CEA135594EAB2
:100A00000C0F08BF95EA0C0F3FF43BAF94EA0C0FB4
:100A10000AD150EA01347FF434AF95EA0C0F7FF429
:100A200025AF104619462CE795EA0C0F06D152EA7D
:100A300003353FF4FDAE1046194622E750EA410661
:100A400018BF52EA43067FF4C5AE50EA41047FF472
:100A50000DAF52EA43057FF4EBAE12E74FF0FF3CD7
:100A600006E000BF4FF0010C02E000BF4FF0010CA8
:100A70004DF804CD4FEA410C7FEA6C5C4FEA430C21
:100A800018BF7FEA6C5C1BD001B050EA410C0CBF70
:100A900052EA430C91EA030F02BF90EA020F0020D2
:100AA000704710F1000F91EA030F58BF994208BF39
:100AB00090422CBFD8176FEAE37040F001007047F6
:100AC0004FEA410C7FEA6C5C02D150EA013C07D14D
:100AD0004FEA430C7FEA6C5CD6D152EA033CD3D098
:100AE0005DF8040B704700BF8446104662468C4692
:100AF0001946634600E000BF01B5FFF7B7FF0028C5
:100B000048BF10F1000F01BD4DF808EDFFF7F4FFED
:100B10000CBF012000205DF808FB00BF4DF808ED78
:100B2000FFF7EAFF34BF012000205DF808FB00BF9B
:100B30004DF808EDFFF7E0FF94BF012000205DF8BD
:100B400008FB00BF4DF808EDFFF7CEFF94BF012072
:100B500000205DF808FB00BF4DF808EDFFF7C4FF6B
:100B600034BF012000205DF808FB00BF4FEA410CB4
:100B70007FEA6C5C02D150EA013C0AD14FEA430C97
:100B80007FEA6C5C02D152EA033C02D14FF00000D4
:100B900070474FF0010070474FEA410212F5001212
:100BA00015D211D56FF47873B3EB625212D94FEAB4
:100BB000C12343F0004343EA505311F0004F23FA9E
:100BC00002F018BF404270474FF00000704750EAF3
:100BD000013005D111F0004008BF6FF000407047B0
:100BE0004FF00000704700BF53B94AB9002908BF51
:100BF00000281CBF4FF0FF314FF0FF3001F0DEB88E
:100C0000ADF1080C6DE904CE00F006F8DDF804E063
:100C1000DDE9022304B070472DE9F047089D044642
:100C20008E46002B4DD18A42944669D9B2FA82F29F
:100C300052B101FA02F3C2F1200120FA01F10CFADB
:100C400002FC41EA030E94404FEA1C48210CBEFB13
:100C5000F8F61FFA8CF708FB16E341EA034306FB9C
:100C600007F199420AD91CEB030306F1FF3080F02B
:100C70001F81994240F21C81023E63445B1AA4B278
:100C8000B3FBF8F008FB103344EA034400FB07F71A
:100C9000A7420AD91CEB040400F1FF3380F00A815B
:100CA000A74240F207816444023840EA0640E41B50
:100CB00000261DB1D4400023C5E900433146BDE8FC
:100CC000F0878B4209D9002D00F0EF800026C5E99E
:100CD000000130463146BDE8F087B3FA83F6002EB6
:100CE0004AD18B4202D3824200F2F980841A61EB2E
:100CF000030301209E46002DE0D0C5E9004EDDE74C
:100D000002B9FFDEB2FA82F2002A40F09280A1EB33
:100D10000C014FEA1C471FFA8CFE0126200CB1FB88
:100D2000F7F307FB131140EA01410EFB03F0884281
:100D300008D91CEB010103F1FF3802D2884200F20E
:100D4000CB804346091AA4B2B1FBF7F007FB1011A0
:100D500044EA01440EFB00FEA64508D91CEB04043E
:100D600000F1FF3102D2A64500F2BB800846A4EB99
:100D70000E0440EA03409CE7C6F12007B34022FA84
:100D800007FC4CEA030C20FA07F401FA06F31C43B3
:100D9000F9404FEA1C4900FA06F3B1FBF9F8200CC0
:100DA0001FFA8CFE09FB181140EA014108FB0EF006
:100DB000884202FA06F20BD91CEB010108F1FF3A56
:100DC00080F08880884240F28580A8F10208614462
:100DD000091AA4B2B1FBF9F009FB101144EA014170
:100DE00000FB0EFE8E4508D91CEB010100F1FF341B
:100DF0006CD28E456AD90238614440EA0840A0FBB3
:100E00000294A1EB0E01A142C846A64656D353D088
:100E10005DB1B3EB080261EB0E0101FA07F722FAAC
:100E200006F3F1401F43C5E9007100263146BDE8D5
:100E3000F087C2F12003D8400CFA02FC21FA03F338
:100E4000914001434FEA1C471FFA8CFEB3FBF7F0B9
:100E500007FB10360B0C43EA064300FB0EF69E42DE
:100E600004FA02F408D91CEB030300F1FF382FD277
:100E70009E422DD9023863449B1B89B2B3FBF7F61F
:100E800007FB163341EA034106FB0EF38B4208D9F8
:100E90001CEB010106F1FF3816D28B4214D9023E39
:100EA0006144C91A46EA004638E72E46284605E757
:100EB0000646E3E61846F8E64B45A9D2B9EB020828
:100EC00064EB0C0E0138A3E74646EAE7204694E7B8
:100ED0004046D1E7D0467BE7023B614432E73046EB
:100EE00009E76444023842E703685A004CBF43F004
:100EF000004323F000431844704700BF2DE9F84336
:100F000029B34F1E044615463E464FF0000808EB35
:100F1000060101EBD171491004EBC1094846FFF706
:100F2000E3FF0346C80008308F42204409D0AB429B
:100F300009D8FFF7D9FF0138A8420AD201F1010808
:100F4000E5E7AB4205D9884501D04E1EDFE74FF0FB
:100F500000094846BDE8F883012807D0022807D0D9
:100F6000044B00280CBF1846002070470248704709
:100F70000248704731160008351600083916000877
:100F800030B5234B83B004468D1E3BB301A92846E0
:100F9000AFF30080E8B101992A46FFF7AFFF0146A1
:100FA000B8B1FFF7A1FF4B68A064012B2CD0002B38
:100FB00001F1040024DBFFF797FF0023C4E91303CA
:100FC0000368002B11DBFFF78FFF2061002003B0C7
:100FD00030BD00230920236103B030BD0D4B0E4905
:100FE000C91AC91018460191D6E7C3F30360FFF789
:100FF000B3FF0028206114BF0020092003B030BDDA
:101000000123C4E91303DBE7002323610520DEE7A6
:1010100000000000B0790008907A00080368DA0741
:1010200010B5044606D49B0700F1480009D500F02E
:101030005BFC2368590709D51A070ED5DB0613D5C3
:1010400010BD00F049FC23685907F5D404F1D00025
:1010500000F052FC23681A07F0D404F5A87000F0E1
:1010600053FC2368DB06EBD404F5E870BDE81040C0
:1010700000F08EBC092070470346006800B1184498
:10108000704700BF704700BF70B504460E46316C14
:101090002046FFF775FF054688B9326C6261236907
:1010A00032462146012098470828F0D0072806D16B
:1010B0002846316CFFF7E6FF301D00F001FC06F01A
:1010C00092F900BF2DE9F0470D1DD0F80C80D0F843
:1010D0001890074614460FCDADF5727D0DF10C0C3E
:1010E000ACE80F000FCDACE80F000FCDACE80F005F
:1010F00095E80F0002AE4FF0000E8CE80F00C6F826
:1011000000E020E0336C7B614FF4F07231467AA846
:1011100005F0CCF83B697AAA394650469847889B37
:1011200073642146CDE9006905463B463A460120F5
:10113000C0470446E0B94FF4F0727AA9304605F092
:10114000B5F8082D1AD1316C3846FFF719FF09346C
:101150005FFA84FA05460028D4D0B36B73643A462C
:10116000CDE900693B464AF010010120C04700B1BB
:10117000092528460DF5727DBDE8F087072DF7D1CA
:101180002046316CFFF77EFF03A800F099FB00BFFB
:10119000406C7047F0B5CB6B0B6401F1040C0E464C
:1011A0000546BCE80F00F9B001AC0FC4BCE80F0065
:1011B0000FC4BCE80F000FC49CE80F004FF0FF37CE
:1011C00084E80F00009706E02B696A462946984795
:1011D0000828044608D110992846FFF7D1FE0028B8
:1011E000F2D0092079B0F0BD6846FFF717FF062C52
:1011F000F7D131462846FFF747FF00BFC160D96BE2
:1012000082611964002219465CE700BF70B5C668A8
:1012100043690B64AEB903690A4604460D460146AC
:1012200002209847072805D008280FD129462046D4
:10123000FFF72AFF3046296CFFF724FF281D00F036
:101240003FFB0122FFF73EFF06F0CDF806F0CBF89A
:10125000C2681AB1CA6B0A64002233E79AE700BF7A
:10126000704700BF836801460BB1012018477047E3
:10127000012912D009D873B90F2A0CD800EB8202C9
:1012800018465368009A136070470339012994BFC8
:10129000012002207047022070470846704700BFB7
:1012A00000B585B00A46002303A900911946FFF74F
:1012B000DFFF039805B05DF804FB00BF012912D0E1
:1012C00009D873B90F2A0CD800EB8200009A126873
:1012D0004260184670470339012994BF012002205B
:1012E0007047022070470846704700BF10B584B0B1
:1012F000002303AC039200940A461946FFF7DEFF71
:1013000004B010BD70B5D36B136402F1040C054634
:101310000C46BCE80F00ADF50E7D0DF15C0EAEE89D
:101320000F00BCE80F00AEE80F00BCE80F00AEE80D
:101330000F009CE80F004FF0FF368EE80F00169666
:1013400010E0FFF7D3FF214616A8A847034616AAC8
:101350006946082083B9049B9847052806460CD0A7
:10136000092809D026996846FFF70AFE03466A460F
:101370000C2116A8002BE4D0092616A8FFF74EFE74
:1013800030460DF50E7D70BD2DE9F04FCC6C89B067
:101390001E4654F8043B06940D46174600F0030819
:1013A000002E79D01A0C1B0405938DF81D20022302
:1013B000D2B204EB82048DF81C302B6DB8F1020F11
:1013C00008BFAC6B13F001030CD005A9384600F040
:1013D00079FB18B9082009B0BDE8F08F092009B0E1
:1013E000BDE8F08FD4F800A0BAF1000FEDD0019362
:1013F00000F008030293022E4AD0B4F800A0B4F81B
:1014000002900434AB6C29F0010B0F2138469B4449
:10141000FFF746FF834539D82AF001039B448345F3
:1014200094BF002001204FEA490303F002030AF0B1
:10143000010A43EA0A03012B49D0022B32D0002BC8
:10144000CCD1B8F1000F02D0002840F0CD80043498
:10145000D4F800A0BAF1000FCDD105A9384600F0AC
:1014600031FB0028BAD1019B002BB3D00F213846A5
:10147000FFF716FF0E2102463846FFF737FF3846C2
:101480006A4A0F21FFF732FF0720A8E70020CAE7CA
:10149000D4F804900834B5E71B0205930323ADF894
:1014A0001C308AE7236823F0004BB8F1000F45D1C8
:1014B00028B1029A002A5CD0BBF1000F74D0002B37
:1014C00000DA04340BF1010B04EB8B04C0E7B8F134
:1014D000000F19D1B0B163682268991C4FEAD2722B
:1014E0003FF47CAF05F158010133049100F0908086
:1014F000201DFFF7C1FD04AB01462846AFF3008075
:1015000000285BD10834A3E70D213846D5F8209098
:10151000FFF7C6FE8145F5D1AB6A9C42F2D1204669
:10152000FFF7E2FC0F2102463846FFF7DFFE3846A0
:101530002A460021FFF7DAFE072050E70D21384642
:10154000D5F82090FFF7ACFE814501D02368B6E7BF
:10155000AB6A9C42FAD104230022C5E90B23E318AD
:10156000C5F828B06B632368002B59DB0123019376
:10157000A8E705F15803CDF80C8004F1040AB04641
:1015800091461E460EE050460496FFF775FD002278
:10159000014604AB284609F101090AF1040AAFF338
:1015A0000080E0B9D945EED10D213846FFF778FE2D
:1015B000049BAC62C5E90803062010E781460D21B3
:1015C0003846FFF76DFEB9F1020F286225D12B4690
:1015D000049A43F82C2F6B62AC620620FFE6464665
:1015E0002368DDF80C806AE72046FFF77DFC0434B1
:1015F0000246AC6328461446AFF3008000283FF44F
:10160000EDAE384622460F21FFF770FE0720E6E6D2
:101610000D213846FFF744FE2862049B6B62DBE72E
:101620000BF1010004EB80007AE700BF000000002E
:101630000023A9E60123A7E60223A5E62DE9F0434E
:101640000646C3B015461C46042900F2BF80DFE8F9
:1016500001F09E57BD2D0300002C40F0B780102AEA
:1016600000F2B4800368D80600F1F98020AF384654
:1016700000F098F9B46B394600234FF0010C0CFAD6
:1016800003F22A42204603F1010303D050F8042B51
:101690000A600446042B01F10401F0D13846B4631A
:1016A00000F076F9002043B0BDE8F083032C40F051
:1016B0008D8094B204EB1243102B4FEA124500F2D6
:1016C000858003681F0700F1D28020AF384600F004
:1016D0003DF9B26B07EBC50154B10B46D01A01EBD3
:1016E000C401E4001D5843F8045B8B42FAD1224444
:1016F0003846B26300F008F9002043B0BDE8F0833B
:10170000012C4FEA124895B25CD0052C5ED108EB53
:101710000509B9F1200F59D8B8F10F0F79D9A946A9
:10172000002D40F08A80B36B6DB320AF4FF00009FD
:1017300007EBC807043F03EBC50553F8041B47F844
:10174000041FAB42F9D1B9F1000F0FD06F464146EB
:10175000102938BF102107EBC101843903EBC905FB
:1017600053F8040B41F8040FAB42F9D1012C00F0FF
:101770008680B8F10F0FB56347D9B9F1000F02D0D9
:10178000684600F0B9F8002043B0BDE8F083ECB93A
:10179000806B23461FFA82FC0124371D04FA03F2F2
:1017A00012EA0C0F014604D051F8042B47F823200D
:1017B00008460133102BF1D115F40055E3D1B06385
:1017C000284604E008EB0503102B03D9022043B0A0
:1017D000BDE8F083B8F10F0FF8D83368DA0706D503
:1017E000304623F0030340F8483B00F079F820AF7F
:1017F000384600F075F8B36B002D97D11D460435BF
:10180000B563384600F068F8BDE720A800F06CF832
:10181000B3E7B9F1100F40D9A9F110093368D9071E
:1018200008D523F00103304643F0020340F8483B5B
:1018300000F05EF8B9F1000F32D033685A0720D4B7
:10184000B8F10F0F25D96F463846C8F1100500F0E2
:1018500057F8002DB36B7FF77AAF20AF68E723F01E
:101860001003336006F5E87000F09CF8FEE623F004
:101870000803036000F5A87000F068F825E720AFC2
:10188000BDE7304623F0040340F8D03B00F038F8C1
:10189000D6E720A800F02CF8D5E74FF00009BDE707
:1018A000B8F10F0F3FF63FAF20AF384600F020F8F9
:1018B000B36B002D7FF43AAF384600F015F862E7BD
:1018C00000F1340191E838009C46A6464CF8045DCE
:1018D00090E8FF0FE54600BD90EC210B704700BF7C
:1018E00080EC210B704700BF90EC200B704700BFCD
:1018F00080EC200B704700BFD0EC200B704700BF7E
:10190000C0EC200B704700BFF0EC0201F0EC0211BC
:10191000F0EC0221F0EC0231F0EC0241F0EC02516B
:10192000F0EC0261F0EC0271F0EC0281F0EC02915B
:10193000F0EC02A1F0EC02B1F0EC02C1F0EC02D14B
:10194000F0EC02E1F0EC02F1704700BFE0EC0201C4
:10195000E0EC0211E0EC0221E0EC0231E0EC0241AB
:10196000E0EC0251E0EC0261E0EC0271E0EC02819B
:10197000E0EC0291E0EC02A1E0EC02B1E0EC02C18B
:10198000E0EC02D1E0EC02E1E0EC02F1704700BFD4
:10199000B0FC0181B0FC0191B0FC01A1B0FC01B12F
:1019A000704700BFA0FC0181A0FC0191A0FC01A137
:1019B000A0FC01B1704700BFEC4600B52DE9005016
:1019C0002DE9FF1F4FF000032DE90C0001A9FFF7DF
:1019D000E1FBDDF840E012B0704700BFEC4600B517
:1019E0002DE900502DE9FF1F4FF000032DE90C00F9
:1019F00001A9FFF70BFCDDF840E012B0704700BF13
:101A0000EC4600B52DE900502DE9FF1F4FF0000313
:101A10002DE90C0001A9FFF71BFCDDF840E012B036
:101A2000704700BFEC4600B52DE900502DE9FF1FBF
:101A30004FF000032DE90C0001ABFFF7DFFBDDF8F1
:101A400040E012B0704700BFEC4600B52DE90050F1
:101A50002DE9FF1F4FF000032DE90C0001AAFFF74D
:101A600051FCDDF840E012B0704700BF027A034637
:101A70007AB9427AA2B14168013A10B44272086858
:101A800003220C1D1A7202025C60000E10BC1A6068
:101A900070470068013A1A7202021A60000E70471D
:101AA000B020704700B585B0002303AA0092194604
:101AB0000C22FFF7DDFB039805B05DF804FB00BFC7
:101AC000F0E700BF2DE9F043054685B00E464FF024
:101AD00000083046FFF7CAFFB028044600F0BA807D
:101AE000070620D500F0F003802B4DD0902B36D088
:101AF000A02B60D0B02B74D0C02B00F08B8000F0F6
:101B0000F803D02B0BD100F007020132052342F479
:101B1000002201212846FFF791FD0028D9D0092095
:101B200005B0BDE8F0838300DBB21F1D0DF10C0989
:101B300000231946CDF800900D222846FFF798FBA8
:101B4000039BCDF8009060064CBFDF1BFF180023FD
:101B50000D22194628460397FFF7B0FBB9E700F0BE
:101B60000D030D2BDBD003AF002300F00F0219464D
:101B700000972846FFF77CFB002300970D221946AB
:101B80002846FFF79BFBA4E73046FFF76FFF2402D0
:101B90002043B0F5004FC2D004010023A2B2194681
:101BA0002846FFF74BFD0028B9D114F4004F18BFA9
:101BB0004FF001088DE7C24302F007034FF47F6244
:101BC0001A41010702F47F624FF0000348BF42F45C
:101BD000804219462846FFF731FD00283FF479AFCF
:101BE0009DE7B1283BD0B22800F09380B32841D0C4
:101BF00000F0FC03B42B92D000F007020132012365
:101C000042F4002219462846FFF718FD00283FF449
:101C100060AF84E7C6284AD0C72854D000F0F80344
:101C2000C02B63D0C82868D0C9287FF478AF30466D
:101C3000FFF71CFF020300F00F0002F470220130D6
:101C40000243012105232846FFF7F8FC00283FF452
:101C500040AF64E7B8F1000F18D0002060E73046CD
:101C6000FFF704FF024600283FF459AF10F0F003DD
:101C7000C8D054E73046FFF7F9FE020300F00F0327
:101C8000013302F470221A430123BBE703AC43463D
:101C90000E22414600942846FFF7EAFA0094434694
:101CA0000F2241462846FFF709FB404638E73046F9
:101CB000FFF7DCFE020300F00F03013302F4702291
:101CC0001A4303239EE73046FFF7D0FE0246002862
:101CD0003FF425AF10F0F0037FF421AF0421284634
:101CE000FFF7ACFC00283FF4F4AE18E700F00F0259
:101CF0000132032342F4202284E73046FFF7B6FE88
:101D000000F0F00200F00F031032013343EA023218
:101D100097E700230DF10C090D221946CDF800902C
:101D20002846FFF7A5FA3046FFF7A0FE02064FF05F
:101D300002040CD5039B00F07F00A04018440390E0
:101D40003046FFF793FE030604F10704F2D4039B29
:101D5000CDF8009000F07F02A24003F501731A4411
:101D60000023039219460D222846FFF7A7FAB0E692
:101D700010B5C26C536884B04FF0030C08321C02DB
:101D800008461B0E01A9019402928DF80CC08DF833
:101D90000D30FFF797FE04B010BD00BF08B5FFF788
:101DA0008FFE806C08BD00BF08B5FFF789FEC06CD0
:101DB000C379023300EB830008BD00BF704700BF4A
:101DC00010B514460A2392B2024800F020FB2046C8
:101DD00010BD00BFC402002008B572B62021034820
:101DE00001F090FA642001F0F9FDF7E700000240ED
:101DF00000B595B03422002107A802F0CFFB0023E4
:101E0000029303930493059306930093224A116C63
:101E100041F080511164126C02F080520092009ADD
:101E200001931E4A116841F440411160126802F4A6
:101E300040420192019A0222079201210A91102147
:101E40000B910D920E9308230F93B42310931192CC
:101E50001292139207A800F041FFB0B901F0C2FC42
:101E6000A8B90F23029302230393002304934FF492
:101E7000A05305934FF480530693052102A800F068
:101E800097FD30B915B05DF804FBFFF7A5FFFFF72C
:101E9000A3FFFFF7A1FF00BF003802400070004021
:101EA00008B501F06FFDFFF7A3FF00F009F801F09E
:101EB000B3FD00F04FF801F0D1FD02F00FFBFEE79B
:101EC00030B589B0002403940494059406940794D3
:101ED00000941D4B1A6B42F004021A631A6B02F055
:101EE00004020092009A01941A6B42F001021A63F4
:101EF0001A6B02F001020192019A02941A6B42F0ED
:101F000002021A631B6B03F002030293029B0F4D44
:101F100022462021284601F0EFF94FF400530393A5
:101F20004FF404130493059403A9094801F0F8F849
:101F300020230393012304930594069403A92846C0
:101F400001F0EEF809B030BD003802400000024058
:101F50000008024008B50A480A4B03604FF4E13319
:101F6000436000238360C36003610C22426183618C
:101F7000C36100F01CFA00B908BDFFF72DFFFBE7B5
:101F8000C40200200044004030B589B00023039310
:101F900004930593069307930268334B9A4201D04A
:101FA00009B030BD04460025019503F5FA331A6CDB
:101FB00042F400321A641A6C02F400320192019A5F
:101FC00002951A6B42F001021A631B6B03F00103C6
:101FD0000293029B0C23039302230493032306938F
:101FE0000723079303A9214801F09AF82048214BC1
:101FF00003604FF0006343608560C5604FF4806309
:10200000036145618561C5610562456201F004FABD
:1020100018BB174BE3639C631748184B03604FF0E2
:1020200000634360402383600023C3604FF48062F9
:10203000026143618361C3610362436201F0ECF9B1
:1020400070B90D4BA3639C6300221146262001F05A
:1020500019FC262001F04EFCA2E7FFF7BDFED8E7F1
:10206000FFF7BAFEEDE700BF004400400000024069
:10207000040200208860024064020020A060024048
:10208000FEE7FEE7FEE7FEE7FEE7704770477047B2
:1020900008B501F091FC08BD08B5024801F0B4FA9A
:1020A00008BD00BF0402002008B5024801F0ACFAE8
:1020B00008BD00BF6402002008B5024802F00DF818
:1020C00008BD00BF1003002008B5024802F005F863
:1020D00008BD00BF1003002008B5024801F0FDFF55
:1020E00008BD00BF1003002008B5024800F01CFB2B
:1020F00008BD00BFC402002000B583B000210091DC
:102100000C4B5A6C42F480425A645A6C02F480427E
:102110000092009A01911A6C42F080521A641B6C72
:1021200003F080530193019B072001F099FB03B05A
:102130005DF804FB00380240026802F10C0353E82A
:10214000003F23F0C0030C3242E800310029F3D1F4
:10215000202380F841307047026802F10C0353E8F5
:10216000003F23F490730C3242E800310029F3D190
:10217000026802F1140353E8003F23F00103143214
:1021800042E800310029F3D1036B012B05D0202355
:1021900080F84230002303637047026802F10C03A9
:1021A00053E8003F23F010030C3242E800310029CD
:1021B000F3D1ECE790F84130DBB2212B01D00220C3
:1021C00070478368B3F5805F17D0036A5A1C0262B8
:1021D0001A7803685A60C38C9BB2013B9BB2C384DC
:1021E0004BB90268D36823F08003D3600268D368D8
:1021F00043F04003D360002070470369002BE4D113
:10220000036A1B880268C3F308035360036A02333E
:102210000362E0E738B504460268136923F44053CB
:10222000C1680B4313618368026913434269134316
:10223000C2691A430168CB6823F4164323F00C03E8
:102240001343CB600268536923F4407381690B43E5
:1022500053610368314A934206D002F5806293428B
:1022600002D000F05BFC01E000F068FCE369B3F52C
:10227000004F29D00021031849411B1841F10001EA
:10228000C90041EA5371DB00181863684FEA830202
:102290004FEA937341F10001FEF7A6FC204DA5FB28
:1022A00000325109642303FB11031B013233A5FBE8
:1022B00003235B0903F0F00202EB011203F00F03AA
:1022C000216813448B6038BD0023021843EB0301DF
:1022D000121841F10001C90041EA5271D2001018F0
:1022E00041F10001626892185B41FEF77DFC0C4DE4
:1022F000A5FB00325109642303FB1103DB003233D9
:10230000A5FB03235B095A0002F4F87202EB0112E9
:1023100003F00703216813448B60D4E700100140E9
:102320001F85EB512DE9F04383B005460E46174655
:102330009946DDF828802C68246836EA04030CBF2F
:102340004FF0010C4FF0000CBC4528D1B8F1FF3F15
:10235000F1D001F03DFBA0EB0900404523D8B8F1D6
:10236000000F22D02B68DA6812F0040FE3D0802E21
:10237000E1D0402EDFD01A6812F0080FDBD0002425
:1023800001941A6801925B680193019B2846FFF74C
:10239000E3FE08236B6485F84040012000E0002044
:1023A00003B0BDE8F0830320FAE70320F8E760B349
:1023B00010B5044690F8413013B3242384F841301B
:1023C0002268D36823F40053D3602046FFF722FF2E
:1023D0002268136923F4904313612268536923F040
:1023E0002A0353612268D36843F40053D36000206A
:1023F0006064202384F8413084F84230606310BD6B
:1024000080F84030FFF7C0FDD7E7012070472DE985
:10241000F04182B01E4690F84130DBB2202B56D1FD
:1024200004460D469046002955D00AB901204FE0D8
:1024300000234364212380F8413001F0C9FA0746A4
:10244000A4F82480A4F82680A368B3F5805F02D0A6
:102450004FF0000814E023692BB34FF000080FE0A1
:10246000202384F84130032032E038F8023B226810
:10247000C3F308035360E28C92B2013A92B2E28451
:10248000E38C9BB293B100963B460022802120460C
:10249000FFF748FF0028E3D1002DE6D015F8012B07
:1024A00023685A60E7E7A8460025E9E700963B461F
:1024B000002240212046FFF735FF18B9202384F879
:1024C000413005E0202384F84130032000E0022061
:1024D00002B0BDE8F0810120FAE7000038B590F8BD
:1024E0004130DBB2202B30D1044600292FD00AB96D
:1024F000012038BD01628284C2840023436421200C
:1025000084F84100A06B134DC563A06B124D0564A8
:10251000A06B124DC564A06B036520681346021DB5
:10252000A06B00F0DFFF23686FF040021A602268A2
:1025300002F1140353E8003F43F08003143242E8F1
:1025400000310029F3D10020D3E70220D1E7012098
:10255000CFE700BF63250008CB250008D925000878
:10256000704708B50346806B1B681B6813F4807FB7
:102570001AD10023C384026802F1140353E8003F18
:1025800023F08003143242E800310029F3D10268BD
:1025900002F10C0353E8003F43F040030C3242E8E1
:1025A00000310029F3D108BDFFF7DAFFFBE708B5DA
:1025B0000168CA6822F04002CA60202280F84120E7
:1025C000FFF7CEFF002008BD704708B5806BFFF70E
:1025D000FBFF08BD7047704710B5846B23685A69CC
:1025E00094F84130DBB2212B10D023685A6902F0F5
:1025F000400294F84230DBB2222B11D0636C43F0DE
:10260000100363642046FFF7E6FF10BD02F080026E
:10261000002AEAD00023E3842046FFF78DFDE4E79B
:10262000002AEBD00023E3852046FFF795FDE5E780
:1026300008B5806B0023C385C384FFF7CCFF08BDBA
:10264000704790F84230DBB2222B69D18368B3F532
:10265000805F4FD0826AB3F5805F04D0002B56D1E3
:102660000369002B53D103685B681370836A0133DD
:102670008362C38D9BB2013B9BB2C385002B51D1BA
:1026800000B583B00268D36823F02003D3600268EA
:10269000D36823F48073D3600268536923F0010385
:1026A0005361202380F8423000234363036B012BE6
:1026B00033D100230363026802F10C0353E8003FA7
:1026C00023F010030C3242E800310029F3D10368F3
:1026D0001A6812F0100F06D0002201921A680192B7
:1026E0005B680193019B818DFFF7AAFF002003B077
:1026F0005DF804FB0269002AACD1826A03685B685A
:10270000C3F308031380836A02338362B1E703686B
:102710005B6803F07F031370A8E7FFF75BFFE5E753
:10272000022070470020704730B583B0044602682D
:102730001368D068516913F00F0505D113F0200F0D
:1027400002D010F0200F19D12DB111F0010119D1D3
:1027500010F4907F16D1216B01297DD013F0800FEA
:1027600003D010F0800F40F0198113F0400F03D018
:1027700010F0400F40F0168103B030BD2046FFF747
:1027800060FFF9E713F0010F06D010F4807F03D04B
:10279000626C42F00102626413F0040F04D019B1BC
:1027A000626C42F00202626413F0020F04D019B1AD
:1027B000626C42F00402626413F0080F07D010F05C
:1027C000200F00D119B1626C42F008026264626CA1
:1027D000002AD1D013F0200F02D010F0200F29D101
:1027E00023685B6903F04003626C12F0080F00D1AC
:1027F00063B32046FFF7B0FC23685B6913F0400F1A
:1028000020D0226802F1140353E8003F23F0400374
:10281000143242E800310029F3D1E36B73B1634A0B
:102820001A65E06B00F0DDFE0028A5D0E06B036DBB
:102830009847A1E72046FFF704FFD1E72046FFF7BE
:10284000CAFE99E72046FFF7C6FE95E72046FFF748
:10285000C2FE002363648FE713F0100F3FF47EAFD6
:1028600010F0100F3FF47AAF002301931368019327
:1028700053680193019B536913F0400F52D0E26BF0
:1028800013685B689BB2002B3FF476AFA18D994231
:102890007FF672AFE385D369B3F5807F37D02268C6
:1028A00002F10C0353E8003F23F480730C3242E83A
:1028B00000310029F3D1226802F1140353E8003FEC
:1028C00023F00103143242E800310029F3D12268D9
:1028D00002F1140353E8003F23F04003143242E8AE
:1028E00000310029F3D1202384F8423000232363F0
:1028F000226802F10C0353E8003F23F010030C326E
:1029000042E800310029F3D1E06B00F020FE022301
:102910006363A18DE38D9BB2C91A89B22046FFF78C
:102920008FFE29E7A18DE38D9BB2C91A89B2E38D91
:102930009BB2002B3FF420AF00293FF41DAF22686B
:1029400002F10C0353E8003F23F490730C3242E889
:1029500000300028F3D1226802F1140353E8003F4D
:1029600023F00103143242E800300028F3D1202381
:1029700084F8423000232363226802F10C0353E8F9
:10298000003F23F010030C3242E800300028F3D15E
:10299000022363632046FFF753FEEDE62046FFF770
:1029A00009FCE9E62046FFF702FEE5E631260008CD
:1029B000002800F09B8070B50D4604464F4B1B6805
:1029C00003F00F038B4208D2CBB24C4A137013684A
:1029D00003F00F038B4240F08B80236813F0020F4B
:1029E00017D013F0040F04D0454A936843F4E05322
:1029F0009360236813F0080F04D0414A936843F4AE
:102A0000604393603E4A936823F0F003A1680B4350
:102A10009360236813F0010F32D06368012B21D03B
:102A20009A1E012A25D9364A126812F0020F61D087
:102A300033498A6822F0030213438B6000F0C8FF19
:102A400006462F4B9B6803F00C036268B3EB820FC2
:102A500016D000F0BDFF801B41F288339842F0D9B8
:102A6000032042E0264A126812F4003FE0D1012020
:102A70003BE0234A126812F0007FD9D1012034E0F4
:102A80001E4B1B6803F00F03AB4207D9EAB21B4B86
:102A90001A701B6803F00F03AB422DD1236813F0AB
:102AA000040F06D0164A936823F4E053E1680B4301
:102AB0009360236813F0080F07D0114A936823F43A
:102AC0006043216943EAC103936000F047F80C4B6F
:102AD0009B68C3F303130B4AD35CD8400A4B1860BE
:102AE0000A4B186800F028FF002070BD01207047D5
:102AF0000120FAE70120F8E70120F6E7003C024058
:102B0000003802406875000808000020040000201A
:102B1000014B1868704700BF0800002008B5FFF798
:102B2000F7FF044B9B68C3F38223034AD35CD8406E
:102B300008BD00BF003802407875000808B5FFF7EF
:102B4000E7FF044B9B68C3F34233034AD35CD8408E
:102B500008BD00BF003802407875000808B55C4B1E
:102B60009B6803F00C03082B07D00C2B5BD0042BC5
:102B700001D0584808BD5848FCE7554B5A6802F048
:102B80003F025B6813F4800F2AD0514B5968C1F3A0
:102B9000881C4FEA4C11B1EB0C006EEB0E0E4FEAA5
:102BA0008E1343EA90638101091A63EB0E03DB0085
:102BB00043EA5173C90011EB0C0C43F100035902B5
:102BC00000234FEA4C2041EADC51FEF70DF8404B60
:102BD0005B68C3F3014301335B00B0FBF3F0C9E76B
:102BE0003B4B5968C1F3881C4FEA4C11B1EB0C0008
:102BF0006EEB0E0E4FEA8E1343EA90638101091AC1
:102C000063EB0E03DB0043EA5173C90011EB0C0CBC
:102C100043F10003990200234FEA8C2041EA9C51C2
:102C2000FDF7E2FFD3E72A4B5A6802F03F025B68E8
:102C300013F4800F28D0264B5968C1F3881C4FEA43
:102C40004C11B1EB0C006EEB0E0E4FEA8E1343EA03
:102C500090638101091A63EB0E03DB0043EA5173B1
:102C6000C90011EB0C0C43F10003590200234FEA99
:102C70004C2041EADC51FDF7B7FF154B5B68C3F30D
:102C80000273B0FBF3F075E7114B5968C1F3881C70
:102C90004FEA4C11B1EB0C006EEB0E0E4FEA8E13A7
:102CA00043EA90638101091A63EB0E03DB0043EAF8
:102CB0005173C90011EB0C0C43F10003990200237E
:102CC0004FEA8C2041EA9C51FDF78EFFD5E700BF0B
:102CD000003802400024F40000127A00002800F0BE
:102CE000018270B582B00446036813F0010F41D031
:102CF000994B9B6803F00C03042B32D0964B9B68D6
:102D000003F00C03082B27D0934B9B6803F00C03B4
:102D10000C2B59D06368B3F5803F5BD0B3F5A02F7F
:102D20005ED08D4B1A6822F480321A601A6822F441
:102D300080221A606368002B5CD000F049FE0546D3
:102D4000854B1B6813F4003F14D100F041FE401B7B
:102D50006428F5D90320CCE17F4B5B6813F4800F26
:102D6000D2D07D4B1B6813F4003F03D06368002B67
:102D700000F0BA81236813F0020F60D0764B9B6895
:102D800013F00C0F4AD0744B9B6803F00C03082B14
:102D90003FD0714B9B6803F00C030C2B69D0E368A8
:102DA000002B75D06D4B01221A6000F011FE054614
:102DB000694B1B6813F0020F61D100F009FE401B44
:102DC0000228F5D9032094E1634B5B6813F4800F6C
:102DD000A0D0C6E7604A136843F480331360A9E7C4
:102DE0005D4B1A6842F480221A601A6842F48032FD
:102DF0001A609FE700F0ECFD0546574B1B6813F483
:102E0000003FB7D000F0E4FD401B6428F5D9032053
:102E10006FE1514B5B6813F4800FBAD14E4B1B68C6
:102E200013F0020F03D0E368012B40F05F814A4AA0
:102E3000136823F0F803216943EAC1031360236890
:102E400013F0080F49D06369002B33D0434B0122A4
:102E5000C3F8802E00F0BCFD05463F4B5B6F13F0BE
:102E6000020F3AD100F0B4FD401B0228F5D903202F
:102E70003FE1394B5B6813F4800F90D1CEE7364ABF
:102E8000136823F0F803216943EAC1031360D6E70E
:102E9000324B00221A6000F09BFD05462E4B1B684A
:102EA00013F0020FCBD000F093FD401B0228F5D9A0
:102EB00003201EE1294B0022C3F8802E00F088FD7C
:102EC0000546254B5B6F13F0020F06D000F080FD26
:102ED000401B0228F5D903200BE1236813F0040FEF
:102EE00076D01D4B1B6C13F0805F33D10023019310
:102EF000194B1A6C42F080521A641B6C03F0805319
:102F00000193019B0125164B1B6813F4807F29D088
:102F1000A368012B3AD0052B3ED00F4B1A6F22F03D
:102F200001021A671A6F22F004021A67A368002BC5
:102F30003CD000F04DFD0646074B1B6F13F0020F0F
:102F400045D100F045FD801B41F288339842F3D90A
:102F50000320CEE00025D6E70038024000004742BB
:102F6000007000406B4A136843F48073136000F0F4
:102F70002FFD0646674B1B6813F4807FC8D100F015
:102F800027FD801B0228F5D90320B2E0624A136FA7
:102F900043F001031367C9E75F4B1A6F42F0040265
:102FA0001A671A6F42F001021A67BFE700F010FDBE
:102FB0000646594B1B6F13F0020F08D000F008FDB6
:102FC000801B41F288339842F3D9032091E0EDB998
:102FD000A369002B00F08C804F4A926802F00C022B
:102FE000082A54D0022B17D04C4B00221A6600F04E
:102FF000EFFC0446484B1B6813F0007F45D000F0FF
:10300000E7FC001B0228F5D9032072E0424A136C4A
:1030100023F080531364DBE7404B00221A6600F074
:10302000D7FC05463C4B1B6813F0007F06D000F030
:10303000CFFC401B0228F5D903205AE0E369226A3D
:103040001343626A43EA8213A26A5208013A43EACE
:103050000243E26A43EA0263226B43EA02732E4AA6
:1030600053602E4B01221A6600F0B2FC04462A4B34
:103070001B6813F0007F06D100F0AAFC001B022899
:10308000F5D9032035E0002033E0002031E0012BAA
:1030900031D0214B5B6803F48001E26991422CD16D
:1030A00003F03F02216A8A4229D1616A47F6C07261
:1030B0001A40B2EB811F24D103F44031A26A5208B6
:1030C000013AB1EB024F1ED103F07062E16AB2EB3C
:1030D000016F1AD103F0E043226BB3EB027F16D1EC
:1030E000002006E001207047012002E0012000E0FE
:1030F000002002B070BD0120FBE70120F9E70120AC
:10310000F7E70120F5E70120F3E70120F1E70120CF
:10311000EFE700BF00700040003802400000474267
:1031200000230F2B00F2DE8070B582B060E085686E
:103130005E000324B44025EA0405CC68B4402C4367
:103140008460456825EA02054C68C4F300129A4081
:103150002A4342605AE0DC08083450F8246003F047
:10316000070295000F22AA4026EA020E0A69AA4029
:1031700042EA0E0240F824205CE0062200E0002231
:1031800002FA0EF22A430234574D45F82420574ADA
:1031900094686FEA0C0224EA0C054E6816F4801F4E
:1031A00001D04CEA0405514CA560E46802EA04052C
:1031B0004E6816F4001F01D04CEA04054B4CE56044
:1031C000646802EA04054E6816F4003F01D04CEA38
:1031D0000405464C6560246822404D6815F4803F24
:1031E00001D04CEA0402414C226001330F2B77D806
:1031F00001229A400C6804EA020C32EA0404F4D179
:103200004C6804F00304013C012C90D94A6802F098
:103210000302032A09D0C4685D000322AA4024EAFD
:1032200002048A68AA402243C2604A6802F003028C
:10323000022A90D004684FEA430E032202FA0EF2EB
:1032400024EA02044A6802F0030202FA0EF2224360
:1032500002604A6812F4403FC7D000220192244A1B
:10326000546C44F480445464526C02F480420192E1
:10327000019A9C08A51C1C4A52F8255003F0030231
:103280004FEA820E0F2202FA0EF225EA0205194ACF
:1032900090423FF474AF02F58062904216D002F57E
:1032A0008062904214D002F58062904212D002F502
:1032B0008062904210D002F5806290420ED002F5FA
:1032C000806290423FF459AF072259E7012257E745
:1032D000022255E7032253E7042251E705224FE774
:1032E00002B070BD704700BF00380140003C014093
:1032F00000380240000002400AB1816170470904B1
:1033000081617047436901EA030221EA030141EA4E
:1033100002418161704730B405682C6824F4802430
:103320002C60046863608368402B05D00368996053
:103330000368DA6030BC704703689A600368D9603C
:10334000F8E7000010B40368D9B210390C4AA2FBA8
:10335000014212090B4CA25CC2655F2909D923F412
:103360007F7323F0030304338365806D5DF8044BA2
:10337000704723F47F7323F003038365F5E700BFF1
:10338000ABAAAAAA60750008836A826992B9012B68
:103390000AD0022B02D00BB100207047C36A13F091
:1033A000807F28D100207047C36AB3F1C07F24D04A
:1033B00000207047B2F5005F09D0022B25D9032BFE
:1033C00025D1C36A13F0807F23D100207047032BDF
:1033D00003D8DFE803F01404140A00207047C36A1E
:1033E00013F0807F0DD100207047C36AB3F1C07F16
:1033F00009D000207047012070470120704701204C
:10340000704701207047012070470120704700205D
:10341000704701207047000070B5044600F0D8FAEC
:10342000002C5BD00546022384F83530002384F855
:1034300034302268136823F00103136023681A688C
:1034400012F0010F0AD000F0C3FA431B052BF5D987
:1034500020236365032084F8350070BD1A68204876
:1034600010406168A2680A43E1680A4321690A437F
:1034700061690A43A1690A43E1690A43216A0A436F
:103480000243616A04291ED01A602668756925F016
:103490000705636A1D43042B07D1A36A1D43E36A32
:1034A0001BB12046FFF770FF90B975612046FFF70A
:1034B00049FFE26D3F239340836000206065012354
:1034C00084F83530C9E7E16A206B01430A43DBE742
:1034D00040236365012084F83500BEE70120BCE786
:1034E0003F8010F038B50446856D90F8340001280F
:1034F0002BD0012084F8340094F83500C0B20128A4
:1035000004D0002384F83430022038BD022084F82F
:103510003500002060652046FFF7FDFEE26D3F2389
:103520009340AB602268136843F016031360236C6A
:1035300023B12268136843F00803136022681368FC
:1035400043F0010313600020DFE70220DDE770B5E0
:103550000446866D00F03CFA94F83530DBB2022B5D
:1035600006D080236365002384F83430012070BDC9
:1035700005462268136823F0160313602268536916
:1035800023F080035361236CE3B12268136823F0B6
:10359000080313602268136823F001031360236893
:1035A0001B6813F0010F11D000F012FA431B052B1A
:1035B000F5D920236365032084F83500002384F8BF
:1035C0003430D4E7A36C002BDFD1E3E7E26D3F2377
:1035D0009340B360012384F83530002084F8340030
:1035E000C5E790F83530DBB2022B03D0802343656A
:1035F00001207047052380F835300268136823F0F6
:103600000103136000207047F0B583B00446002327
:103610000193724B1D68724BA3FB0535AD0A876D94
:103620003E68C26D08239340334210D003681A6885
:1036300012F0040F0BD01A6822F004021A60C26D57
:1036400008239340BB60436D43F001034365E26D83
:1036500001239340334209D02268526912F0800F4F
:1036600004D0BB60636D43F002036365E26D042325
:103670009340334209D02268126812F0020F04D03E
:10368000BB60636D43F004036365E26D10239340F8
:10369000334224D02268126812F0080F1FD0BB609A
:1036A00023681A6812F4802F0DD01B6813F4002FC2
:1036B00004D1236C9BB12046984710E0A36C73B1F2
:1036C000204698470BE01A6812F4807F03D11A68ED
:1036D00022F008021A60236C0BB120469847E26D75
:1036E00020239340334255D02268126812F0100F05
:1036F00050D0BB6094F83530DBB2052B0ED0236878
:103700001A6812F4802F33D01B6813F4002F2AD1CB
:10371000636C002B3ED0204698473BE0226813683C
:1037200023F0160313602268536923F0800353616A
:10373000236CA3B12268136823F008031360E26DC1
:103740003F239340BB60012384F83530002384F885
:103750003430236D002B3FD0204698473CE0A36CCB
:10376000002BE7D1EBE7E36BA3B12046984711E0CC
:103770001A6812F4807F09D11A6822F010021A60C8
:10378000012384F83530002384F83430E36B0BB127
:1037900020469847636DFBB1636D13F0010F17D09E
:1037A000052384F835302268136823F00103136081
:1037B000019B01330193AB4204D823681B6813F0CB
:1037C000010FF5D1012384F83530002384F834301B
:1037D000E36C0BB12046984703B0F0BD0800002011
:1037E000B5814E1B10B582B000230193194B1A6CA2
:1037F00042F080521A641B6C03F080530193019BCA
:10380000154B01221A6400F0E3F80446134B5B6881
:1038100013F4803F08D100F0DBF8001BB0F57A7F8D
:10382000F4D9032002B010BD0B4B01225A6400F002
:10383000CFF80446094B5B6813F4003F07D100F052
:10384000C7F8001BB0F57A7FF4D90320EAE700201F
:10385000E8E700BF0038024000000E420070004060
:10386000074AD36823F4E0631B041B0C000200F436
:10387000E060034343F0BF6343F40033D360704719
:1038800000ED00E000B5194BDB68C3F30223C3F180
:10389000070CBCF1040F28BF4FF0040C03F1040E19
:1038A000BEF1060F18D9033B4FF0FF3E0EFA0CFC99
:1038B00021EA0C0199400EFA03F322EA03031943AB
:1038C00000280BDB0901C9B200F1604000F561403E
:1038D00080F800135DF804FB0023E5E700F00F001B
:1038E0000901C9B2024B1954F4E700BF00ED00E032
:1038F00014ED00E0002807DB00F01F02400901235F
:103900009340024A42F82030704700BF00E100E0D7
:103910000138B0F1807F0BD24FF0E0235861054AA7
:10392000F02182F823100020986107221A61704765
:103930000120704700ED00E010B504460E4B1878EA
:103940004FF47A73B3FBF0F30C4A1068B0FBF3F05A
:10395000FFF7DEFF68B90F2C01D901200AE0002231
:1039600021464FF0FF30FFF78DFF054B1C60002014
:1039700000E0012010BD00BF000000200800002072
:103980000400002008B50B4B1A6842F400721A605C
:103990001A6842F480621A601A6842F480721A60EF
:1039A0000320FFF75DFF0020FFF7C6FFFEF7A4FB33
:1039B000002008BD003C0240034A1168034B1B78FD
:1039C0000B441360704700BF0C0300200000002070
:1039D000014B1868704700BF0C03002038B504463F
:1039E000FFF7F6FF0546B4F1FF3F02D0044B1B780A
:1039F0001C44FFF7EDFF401BA042FAD338BD00BFC7
:103A000000000020034AD2F8883043F47003C2F863
:103A10008830704700ED00E010B582B000240194BA
:103A20000D4B1A6B42F400121A631B6B03F4001364
:103A30000193019B224621461020FFF723FF10200F
:103A4000FFF758FF224621461120FFF71BFF1120E8
:103A5000FFF750FF02B010BD0038024008B50C4817
:103A60000C4B03600523436000238360C3604FF465
:103A7000C02202614361037643768376C37603777F
:103A8000437700F059F800B908BDFEF7A5F9FBE748
:103A9000100300200064004010B588B00023039399
:103AA00004930593069307930268214B9A4201D031
:103AB00008B010BD0024019403F5EA331A6C42F0FB
:103AC00000721A641A6C02F000720192019A029458
:103AD0001A6B42F002021A631B6B03F0020302939B
:103AE000029B4FF440730393022304930323069332
:103AF0000923079303A90F48FFF712FB224621462B
:103B00001320FFF7BFFE1320FFF7F4FE22462146E5
:103B10001420FFF7B7FE1420FFF7ECFE22462146E3
:103B20001520FFF7AFFE1520FFF7E4FEC0E700BF4A
:103B30000064004000040240002800F0A18038B575
:103B4000044690F82030D3B12268136843F0010393
:103B50001360FFF73DFF054623685A6812F0010F16
:103B600010D1FFF735FF401B0A28F5D9636A43F4EB
:103B700000336362052384F82030012038BDFFF74D
:103B80008BFFE1E71A6822F002021A60FFF720FFBC
:103B9000054623685A6812F0020F0DD0FFF718FF90
:103BA000401B0A28F5D9636A43F400336362052396
:103BB00084F820300120E1E7227E012A3DD01A68F6
:103BC00022F080021A60637E012B3BD022681368CA
:103BD00023F040031360A37E012B39D022681368C1
:103BE00023F020031360E37E012B37D02268136893
:103BF00043F010031360237F012B35D02268136834
:103C000023F008031360637F012B33D0226813680D
:103C100023F004031360A368E2681343226913438B
:103C2000626913436268013A21681343CB61002043
:103C30006062012384F82030A0E71A6842F0800215
:103C40001A60C0E72268136843F040031360C2E7BC
:103C50002268136843F020031360C4E722681368E6
:103C600023F010031360C6E72268136843F00803CB
:103C70001360C8E72268136843F004031360CAE7BF
:103C80000120704790F82030013BDBB2012B05D9B1
:103C9000436A43F4802343620120704730B5464BAA
:103CA000D3F8002242F00102C3F80022D3F8002228
:103CB00022F47C52C3F80022D3F80022486A42EA78
:103CC0000022C3F800224A6902F01F02012000FA14
:103CD00002F2D3F81C026FEA020C20EA0200C3F8D9
:103CE0001C02CB69C3B9344BD3F80C020CEA0000B8
:103CF000C3F80C028C884869CD6844EA0544483012
:103D000043F830408C68088840EA04404C6904F16C
:103D1000480E03EBCE035860CB69012B1ED08B6994
:103D2000002B33D12448D0F804320CEA0303C0F846
:103D300004320B698BBB2048D0F814320CEA030321
:103D4000C0F814320B6A012B2ED01B4AD2F8003275
:103D500023F00103C2F80032002030BD164BD3F827
:103D60000C021043C3F80C028C8848690D6844EAC1
:103D70000544483043F8304088894C698D6840EAF2
:103D80000540483403EBC4035860C8E70A48D0F83C
:103D900004321343C0F80432CBE70748D0F814329A
:103DA0001343C0F81432CDE70349D1F81C321A434B
:103DB000C1F81C22C9E700BF0064004070B504468A
:103DC00090F82050EDB2012D06D0436A43F4002351
:103DD00043620125284670BD022380F82030026826
:103DE000136823F001031360FFF7F2FD0646236812
:103DF0005B6813F0010F0CD0FFF7EAFD831B0A2B61
:103E0000F5D9636A43F400336362052384F82030F4
:103E1000E0E700256562DDE730B590F820C0046872
:103E2000A4680CF1FF3C5FFA8CFCBCF1010F62D876
:103E300014F0E05F59D0C4F3016C012404FA0CF4CF
:103E40001C608B68002B3DD10D68CB68046843EA89
:103E500045550CF118031B01E55003680C690CF182
:103E6000180E03EB0E135C600B7D012B35D0D1795E
:103E700093791B0443EA0163517943EA01231479DE
:103E80000168234301EB0C11C1F88C31D178937890
:103E90001B0443EA0163517843EA01231178026865
:103EA0000B4302EB0C12C2F8883102680CF1180CBB
:103EB0004FEA0C1C52F80C3043F0010342F80C306E
:103EC00000201DE04C6843EAC403CC6823430CF196
:103ED0001804240105682B51BFE7036803EB0E1398
:103EE000596841F480715960C1E7436A43F4001393
:103EF0004362012004E0436A43F4802343620120CB
:103F000030BD90F82030013BDBB2012B01D90020FD
:103F100070470368986810F0806000D001209A68AC
:103F200012F0006F00D001309B6813F0805FEFD07B
:103F30000130704790F820C00CF1FF3C5FFA8CFC18
:103F4000BCF1010F00F2A58030B451B90468E468F7
:103F500014F0030F10D1436A43F4001343620120AD
:103F60007EE00468246914F0030F05D1436A43F42A
:103F700000134362012073E0056801F11B04240172
:103F80002C5904F004049460002C6BD1056801F1F5
:103F90001B0424012C59640D1460046801F11B0CEE
:103FA0004FEA0C1C54F80C4004F00204D46004687E
:103FB000A444DCF8045015F0080F5BD00824146109
:103FC000056801F11B0C05EB0C156D68C5F30725A1
:103FD0009561046804EB0C146468240C5461026855
:103FE00002EB0112D2F8B8211A70026802EB01123A
:103FF000D2F8B821C2F307225A70026802EB01120C
:10400000D2F8B821C2F307429A70026802EB01129B
:10401000D2F8B821120EDA70026802EB0112D2F85F
:10402000BC211A71026802EB0112D2F8BC21C2F362
:1040300007225A71026802EB0112D2F8BC21C2F3C6
:1040400007429A71026802EB0112D2F8BC21120EEB
:10405000DA71C1B90268D36843F02003D36000204D
:1040600030BC7047056801F11B0424012C59E40899
:10407000546092E701F11B0504EB0514646804F039
:104080000F0414619CE70268136943F02003136175
:10409000E5E7436A43F4802343620120704790F8C8
:1040A0002030013BDBB2012B05D9436A43F4802366
:1040B000436201207047026853691943516100202F
:1040C0007047704770477047704770477047704738
:1040D000704770477047704770472DE9F84F0546A5
:1040E00003685C69D3F804809F68D3F80CB0D3F8F8
:1040F00010A0D3F8189014F001063BD017F0010679
:1041000016D001229A6017F0020F08D117F0040FA1
:104110000CD117F0080606D04FF4805608E0FFF7E0
:10412000D0FF002604E0FFF7CFFF01E04FF4006668
:1041300017F4807F0DD02B684FF480729A6017F4CB
:10414000007F40F0868017F4806F00F0868046F490
:10415000005617F4803F0DD02B684FF480329A60E0
:1041600017F4003F40F0838017F4802F00F0838025
:1041700046F4004614F0080F07D01BF0100F04D0CF
:1041800046F400762B681022DA6014F0040F02D097
:104190001BF0080F79D114F0020F04D02B68DB68F4
:1041A00013F0030F78D114F0400F07D01AF0100F5E
:1041B00004D046F480662B6810221A6114F0200F98
:1041C00002D01AF0080F6BD114F0100F04D02B6836
:1041D0001B6913F0030F6AD114F4003F02D018F0EA
:1041E000100F68D114F4803F02D018F0080F69D185
:1041F00014F4004F7AD018F0040F74D014F4807FB8
:1042000004D019F0010F01D046F0010614F4007F2C
:1042100004D019F0020F01D046F0020614F4806FAA
:1042200004D019F0040F01D046F0040614F4006F16
:1042300059D019F0700956D0B9F1400F65D058D84F
:10424000B9F1200F5ED0B9F1300F42D146F020060F
:1042500044E02846FFF736FF7BE717F4006F02D0F3
:1042600046F4804675E72846FFF72FFF71E728469A
:10427000FFF729FF7EE717F4002F02D046F48036BF
:1042800078E72846FFF722FF74E72B680822DA60F8
:104290002846FFF71CFF7EE7284600F09DF882E7DE
:1042A0002B6808221A612846FFF713FF8CE728467F
:1042B000FFF70EFF90E72B6810225A602846FFF7A1
:1042C00009FF8FE72B6808225A602846FFF703FF93
:1042D0008EE7B9F1100F01D146F008062A689369FC
:1042E00023F0700393612B6804225A609EB9BDE8E5
:1042F000F88FB9F1500F0BD0B9F1600FEED146F441
:104300008076EBE746F01006E8E746F04006E5E782
:1043100046F08006E2E76B6A1E436E622846FFF7AE
:10432000DBFEE4E7DFF834D0FFF76CFB0C480D4907
:104330000D4A002302E0D458C4500433C4188C4200
:10434000F9D30A4A0A4C002301E013600432A24266
:10435000FBD300F0FFF8FDF7A3FD7047000002203B
:1043600000000020E80100209C7A0008E8010020FD
:1043700008040020FEE70000012800D070474FF637
:10438000FF739942FAD1034B034A1A604FF48072CB
:104390005A60F3E738030020100300200FB410B573
:1043A00082B004AB53F8042B0193094C80212046C2
:1043B00000F008FE2046FBF72BFF82B2214605489D
:1043C000FEF78CF802B0BDE8104004B0704700BFA3
:1043D00074030020C40200201E4B1A681E4B9A4230
:1043E00000D0704700B583B01A4A52F8200B1B4B1F
:1043F0000021FFF79FFDC0B9164B9B6A93B9154B7F
:104400001A6A174B1A60164B40F255521A60114B3C
:104410001868FFF776FD60B9124800F09FFD03B001
:104420005DF804FB0B4B5A6AEBE70F4800F096FD72
:10443000E9E70B4A52F8043B06498B6000234B61C5
:104440000B61082088610B7751F8080B01ABFFF76F
:10445000E3FCE1E7380300201003002010000020F7
:104460000C000020907500088075000810B58AB017
:10447000164B1868FFF7A2FCF8B9EC46144C0FCCA9
:10448000ACE80F000FCCACE80F0094E803008CE818
:10449000030069460D4B1868FFF7F4FB80B9022151
:1044A0000A4B1868FFF7FBFD68B90A4800F056FD93
:1044B0000948FFF773FF0AB010BDFDF78DFCDCE77C
:1044C000FDF78AFCEBE7FDF787FCEEE738030020F9
:1044D0003875000898750008A475000800B583B009
:1044E000FFF7C4FF02E0124800F038FD6420FFF738
:1044F00075FA20210F48FEF705FF0F4800F02EFD4A
:104500000E4B1868FFF7FDFC0028ECD00C4A52F85F
:10451000043B0A498B6000234B610B6108208861D2
:104520000B7751F8080B01ABFFF776FCDBE700BF18
:104530009075000800000240AC75000838030020A8
:104540000C00002008B54FF6FF710120FFF714FFA3
:1045500008BD000070B50D4D0D4C641BA410002665
:10456000A64209D10B4D0C4C02F0D8FF641BA410DD
:104570000026A64205D170BD55F8043B9847013688
:10458000EEE755F8043B98470136F2E7907A0008C9
:10459000907A0008907A0008987A0008024403464E
:1045A000934200D1704703F8011BF9E72DE9FF475B
:1045B00055EC104B002D0E4619462B46BBBF05F19E
:1045C00000431D4600232D230B700D9BDDF830A00A
:1045D000914623F02008BCBF22461446B8F1460F8E
:1045E00005D0B8F1450F00D10136022100E00321CA
:1045F00003AB019302AB009345EC104B534632469C
:1046000000F03AFEB8F1470F074602D119F0010F4A
:1046100022D0B8F1460F07EB060910D13B78302BBA
:104620000AD10022002320462946FCF76DFA18B96A
:10463000C6F10106CAF80060DAF800309944002299
:10464000002320462946FCF75FFA08B1CDF80C900C
:104650003022039B4B4507D3039B0E9ADB1B384646
:10466000136004B0BDE8F087591C03911A70F0E79D
:10467000F7B503460029B8BF494203F8022BB4BF7F
:104680002D222B22092942702ADD0DF10704A446B0
:104690000A27A6460A4691FBF7F607FB16153035A2
:1046A000632A04F1FF340EF8015C3146F1DC30314D
:1046B000AEF1020504F8011C441C294661450AD3E9
:1046C0000DF10902A2EB0E02654588BF00221344DA
:1046D000181A03B0F0BD11F8012B04F8012FEDE713
:1046E000302330318370C170031DF1E72DE9F04FA5
:1046F0002DED028B8DB00C46DDF8608016461F460E
:10470000054601F05FFDD0F800A05046FBF780FDA4
:1047100000230A9323680593D8F8003094F818B062
:10472000073323F0070303F10802C8F80020D3E998
:104730000023C4E91223D4E9128929F00043079326
:10474000CDF8188008EE100A9F4BDDE906014FF006
:10475000FF32FCF70BFA88BBDDE906019A4B4FF0FC
:10476000FF32FCF7E5F948BB0022002340464946EA
:10477000FCF7D4F910B12D2384F84330934B9448BF
:10478000BBF1470F94BF9846804603232361059BE6
:1047900023F0040222604FF00009009733460BAA71
:1047A0002146284600F0D8F9013040F090804FF0C3
:1047B000FF300DB0BDEC028BBDE8F08F42464B469A
:1047C00040464946FCF7D2F940B14B46002BBCBFEE
:1047D0002D2384F843307F487F4BD1E763680BF08B
:1047E000DF0206925A1C3FD106236360059B616875
:1047F00043F48062002303930AABCDE901B309AB14
:1048000049EC108B009322600DF123032846FFF73B
:10481000CDFE069B0999472B804608D1C81C02DBB8
:104820006368994241DDABF1020B5FFA8BFBBBF190
:10483000650F20D801395A4604F150000991FFF75D
:1048400017FF0A9A1318012A8146236102DC2268A5
:10485000D20701D5013323619DF82330002B9CD072
:104860002D2384F8433098E7069A472ABED1002BBF
:10487000BCD10123B9E7BBF1660F18D100296368E9
:104880000BDD216113B92268D00702D501330B4437
:104890002361A1654FF00009DEE713B92268D20752
:1048A00001D50233F4E70123F2E74FF0670B0A9BCF
:1048B000994205DB23682161D807EAD54B1CE7E75D
:1048C0000029D4BFC1F1020201221344E0E72368AA
:1048D0005A0507D42369424631462846B847013075
:1048E0002CD164E7BBF1650F40F2E080D4E91201FE
:1048F00000220023FCF708F9002834D0374A0123AE
:1049000031462846B84701303FF451AFDDE909236D
:104910009A4202DB2368D80710D518EE103A5246A7
:1049200031462846B84701303FF441AF4FF0000808
:1049300004F11A090A9B013B434509DC23689B07E4
:1049400000F10581E0680B9B9842B8BF184630E73C
:1049500001234A4631462846B84701303FF427AF85
:1049600008F10108E6E7099B002B39DC1B4A01230B
:1049700031462846B84701303FF419AFDDE9092335
:10498000134302D12368D907D8D518EE103A5246FE
:1049900031462846B84701303FF409AF4FF00009CF
:1049A00004F11A0A099B5B424B4501DC0A9B92E722
:1049B0000123524631462846B84701303FF4F7AE4E
:1049C00009F10109EEE700BFFFFFEF7FB8750008AE
:1049D000BC750008C4750008C0750008C8750008DB
:1049E0000A9AA36D9A42A8BF1A46002A914637DC5C
:1049F0004FF0000B29EAE97904F11A02A36D05933F
:104A0000A3EB09035B4533DCDDE909239A423BDB79
:104A10002368DA0738D40A9B059A09999A1AA3EBF6
:104A200001099145A8BF9146B9F1000F35DC4FF05F
:104A3000000829EAE97904F11A0ADDE909239B1A39
:104A4000A3EB090343457FF779AF01235246314673
:104A50002846B84701303FF4AAAE08F10108ECE758
:104A60001346314642462846B8470130C0D19EE63B
:104A70000123314628460592B84701303FF497AEEE
:104A8000059A0BF1010BB9E718EE103A5246314680
:104A90002846B8470130BED189E6059A4B464244C4
:104AA00031462846B8470130C1D180E60A9A012A2A
:104AB00001DCDB0738D50123424631462846B8479A
:104AC00001303FF474AE18EE103A52463146284693
:104AD000B84701303FF46BAED4E912010022002345
:104AE000FCF712F8D8B90A9B08F10102013B3146E4
:104AF0002846B84701300ED159E6012352463146C7
:104B00002846B84701303FF452AE08F101080A9B2D
:104B1000013B4345F1DC4B4604F15002DCE64FF02B
:104B2000000804F11A0AF2E701234246DFE70123F5
:104B30004A4631462846B84701303FF438AE08F1BE
:104B40000108E3680B995B1A4345F0DCFAE64FF085
:104B5000000804F11909F4E72DE9F04716469946D3
:104B60008A680B69DDF820809342B8BF1346336032
:104B700091F8432007460C460AB10133336023689D
:104B8000990642BF336802333360256815F0060585
:104B900006D104F1190AE36832689B1AAB4226DC9D
:104BA00094F84320131E226818BF012392062BD4C9
:104BB00004F1430249463846C04701301ED02368FD
:104BC000E568326803F00603042B08BFAD1AA3683A
:104BD00022690CBF25EAE57500259342C4BF9B1AE4
:104BE000ED1800261A34B5421AD1002008E001233E
:104BF000524649463846C047013003D14FF0FF3096
:104C0000BDE8F0870135C6E7E1185A1C302081F86D
:104C10004300224494F8451082F843100233C7E75A
:104C20000123224649463846C0470130E6D00136C6
:104C3000D9E700002DE9FF470F7E0C9D782F9146A4
:104C400080460C469A4601F1430207D8622F0AD8E3
:104C5000002F00F0D880582F00F0A38004F1420507
:104C600084F842703AE0A7F16303152BF6D801A14E
:104C700051F823F0CD4C0008E14C00085D4C0008D1
:104C80005D4C00085D4C00085D4C0008E14C0008DC
:104C90005D4C00085D4C00085D4C00085D4C000850
:104CA000ED4D0008114D0008CF4D00085D4C000887
:104CB0005D4C00080F4E00085D4C0008114D0008C7
:104CC0005D4C00085D4C0008D74D00082B681A1D8C
:104CD0001B682A6004F1420584F842300123A3E0F6
:104CE00020682968060601F104030AD50E682B60C6
:104CF000002E03DA2D23764284F843305E480A23DF
:104D000019E00E682B6010F0400F18BF36B2EFE7C5
:104D10002B682068191D2960010601D51E6802E074
:104D20004606FBD51E8854486F2F0CBF08230A2364
:104D3000002184F843106568A560002DA2BF21689A
:104D400021F0040121600EB9002D4DD01546B6FBAF
:104D5000F3F103FB1167C75D05F8017D3746BB42E0
:104D60000E46F4D9082B0BD12368DE0708D523693A
:104D700061689942DEBF302305F8013C05F1FF353B
:104D8000521B2261CDF800A04B4603AA21464046A3
:104D9000FFF7E2FE01304CD14FF0FF3004B0BDE828
:104DA000F087354881F845702968236851F8046B0D
:104DB00029601D0614D5DF0744BF43F0200323609C
:104DC0001EB9236823F0200323601023B0E7236873
:104DD00043F0200323607823284884F84530E3E734
:104DE000590648BFB6B2E6E71546BBE72B6826680A
:104DF0006169181D286035061B6801D5196002E03D
:104E00007006FBD51980002323611546BAE72B688D
:104E10001A1D2A601D68626800212846FBF700FA07
:104E200008B1401B606063682361002384F843304D
:104E3000A8E723692A4649464046D0470130ABD00F
:104E400023689B0713D4E068039B9842B8BF1846B9
:104E5000A4E70123324649464046D04701309BD063
:104E60000135E36803995B1AAB42F2DCEBE70025FE
:104E700004F11906F5E700BFCA750008DB750008E4
:104E800070B50E46054618B183690BB901F0FCF800
:104E9000AB69AC6813B9284601F0F6F82C4B9C427C
:104EA00020D16C68636EDB0705D4A389980502D412
:104EB000A06D01F08CF9A38919071DD52369DBB119
:104EC000013EA36816F8011F013BA36039BB002B0C
:104ED00038DA22460A21284600F082F8013011D043
:104EE0000A2511E01B4B9C4201D1AC68DAE71A4B52
:104EF0009C4208BFEC68D5E72146284600F0C2F87E
:104F00000028DDD04FF0FF35636EDA0705D4A389A2
:104F10009B0502D4A06D01F05BF9284670BD002B03
:104F200004DAA2699A4206DC0A2904D023685A1CD2
:104F300022601970C5E72246284600F051F801307A
:104F4000BFD1DFE723680A255A1C22601D70DBE70A
:104F50009C760008BC7600087C760008024B01466F
:104F60001868FFF78DBF00BF1800002030B5144649
:104F7000002C9BB005461A4605DA8B2303604FF0E0
:104F8000FF301BB030BD4FF40273ADF80C3014BFCE
:104F900004F1FF332346029305934FF6FF7300910C
:104FA0000491ADF80E3069461E9B01F063FE431C70
:104FB000BCBF8B232B60002CE3D0009B00221A7017
:104FC000DFE7000007B5009313460A460146034891
:104FD0000068FFF7CBFF03B05DF804FB180000206A
:104FE000F8B50E461446054618B183690BB901F0B1
:104FF0004BF8214B9C422BD16C68A369A360A38919
:105000001A072FD523696BB323692068C01A636917
:10501000F6B28342374604DC2146284600F0A0FF62
:1050200030BBA368013BA36023685A1C22601E703A
:1050300063690130834204D0A389DB0706D50A2EB9
:1050400004D12146284600F08BFF88B93846F8BDC8
:105050000A4B9C4201D1AC68CFE7094B9C4208BF88
:10506000EC68CAE72146284600F00CF80028CBD0AF
:105070004FF0FF37EAE700BF9C760008BC760008D7
:105080007C760008324B70B51D6806460C4625B18B
:10509000AB6913B9284600F0F7FF2E4B9C420FD1A5
:1050A0006C68A389B4F90C2019072CD4DD0611D43F
:1050B0000923336042F04003A3814FF0FF303EE00C
:1050C000254B9C4201D1AC68EBE7244B9C4208BFC6
:1050D000EC68E6E7580712D5616B41B104F144036F
:1050E000994202D0304601F089FC00236363A38912
:1050F00023F02403A3810023636023692360A38931
:1051000043F00803A38123694BB9A38903F42073F7
:10511000B3F5007F03D02146304601F07FF8A08927
:10512000B4F90C2010F001030AD00023A3606369D6
:105130005B42A361236943B910F08000BAD170BD0E
:10514000810758BF6369A360F4E70020F7E700BF59
:10515000180000209C760008BC7600087C760008C9
:105160002DE9F74F03690C69A3420746C0F281801D
:10517000013C01F1140800F1140505EB84030193CF
:1051800058F8243055F8242001339A424FEA840B12
:1051900008EB8409B2FBF3F631D34FF0000E404622
:1051A000AC46F24650F8042B93B206FB03E34FEAF9
:1051B000134E9BB2AAEB0303DCF800A0120C13FA07
:1051C0008AF306FB02E20093009B4FEA124E92B272
:1051D000C2EB1A4202EB2342BDF80030814543EA9C
:1051E00002434CF8043B4FEA224ADBD255F80B301D
:1051F0002BB9019B043B9D421A462ED33C61384695
:1052000001F0E4FA002824DB013628464FF0000CB8
:1052100058F8042BD0F800E093B2ACEB0303120C67
:1052200013FA8EF3C2EB1E4202EB23429BB243EA17
:105230000243C14540F8043B4FEA224CE8D255F8FE
:10524000242005EB840322B9043B9D421A460AD36D
:105250003C61304603B0BDE8F08F1268043B002A81
:10526000CCD1013CC7E71268043B002AF0D1013CD5
:10527000EBE70020EEE700002DE9F04F2DED048B69
:1052800057EC106B93B0456ADDF88080069110EE04
:1052900010AA044609920C93BB4675B9102000F081
:1052A000FDFF0246606220B9A74BEA21A74801F042
:1052B00047FEC0E901550560C560636A196851B1D0
:1052C0005A684A60012393408B60204601F03CF805
:1052D000636A00221A603B1EAABF002323F0004B22
:1052E000C8F800309A4BBCBF0122C8F8002033EA4E
:1052F0000B031BD10C9A42F20F731360CBF3130311
:10530000334300F09285219B63B9924B22E0924B8C
:1053100001930833219A1360019813B0BDEC048BFC
:10532000BDE8F08F8B4B01930333F3E7002200239A
:1053300050465946FBF7E8FB4BEC19AB804658B199
:105340000C9A01231360219B002B00F06B8583488E
:105350001860431E0193DFE74BEC10AB10AA11A9B4
:10536000204601F0D9FACBF30A5508EE100A002DB9
:1053700000F0848019EE903AC3F3130343F07F5793
:10538000564647F44017A5F2FF35CDF83880744BE8
:10539000002230463946FAF797FF65A3D3E9002388
:1053A000FBF74AF964A3D3E90023FAF78FFF064617
:1053B00028460F46FBF7D6F861A3D3E90023FBF795
:1053C0003BF902460B4630463946FAF77FFF064660
:1053D0000F46FBF7E1FB00220090002330463946E0
:1053E000FBF79CFB50B10098FBF7BCF832463B46FC
:1053F000FBF78AFB10B9009B013B0093009B162B27
:105400005AD8009A574B03EBC203D3E9002351EC5F
:10541000190BFBF783FB002850D0009B013B009346
:1054200000230B93109B5D1B6B1E059345BFC5F1BD
:1054300001030493002300234CBF05930493009BB6
:10544000002B3DDB059B009A0A9213440593002331
:105450000793069B092B00F28980052BC4BF043BF0
:105460000693069BA3F10203CCBF00250125032B65
:1054700000F28780DFE803F02D3A3859DDE9105358
:105480001D4405F23243202BC1BFC3F1400305F296
:1054900012400BFA03F326FA00F0DABFC3F120033F
:1054A00006FA03F01843FBF74DF801230646A1F175
:1054B000F877013D0E936AE70123B2E70B90B1E75D
:1054C000049B009A9B1A04935342079300230A9368
:1054D000BFE700230893099B002B55DC0123CDE98E
:1054E00002331A4609920CE00123F3E70023099ADC
:1054F0000893009B134402930133012B0393B8BF1D
:105500000123606A00224260042202F114069E42D6
:1055100041683DD9204600F0D7FE019000283BD1DC
:10552000114B02464FF4D571C0E60123DFE700BFFF
:1055300061436F63A787D23FB3C8608B288AC63F99
:10554000FB799F501344D33FF9750008107600088B
:105550000000F07FF5750008EC750008C9750008BB
:105560000000F83F607700086A76000801250023F4
:10557000069308954FF0FF33CDE902330022122342
:10558000B0E701230893F5E7099BCDE90233B8E7BB
:10559000013141605200B8E7636A019A1A60039BC7
:1055A0000E2B00F29D80002D00F09A80009B002BB6
:1055B00032DDB74A03F00F0302EBC303D3E90089DE
:1055C000009BD8054FEA231716D5B24B51EC190BA7
:1055D000D3E90823FBF75AF907F00F0782468B46F9
:1055E0000325AC4E57B942464B4650465946FBF749
:1055F0004DF982468B4628E00225F2E7F90708D5E7
:1056000040464946D6E90023FBF716F801358046A7
:1056100089467F100836E5E700F09B80009B9D4F90
:105620005E429B4B06F00F0203EBC203D3E900235B
:1056300051EC190BFBF700F8361182468B4600231C
:105640000225002E7AD1002BD3D10B9B002B00F02A
:105650008280914B002250465946FBF75FFA0028A2
:1056600079D0039B002B76D0029B002B36DD009B6C
:10567000504659465F1E0022884BFAF7DDFF029E16
:1056800082468B4601352846FAF76CFF52465B4648
:10569000FAF7D2FF824B0022FAF718FED046D9461D
:1056A0008246A1F1507B002E58D17E4B002240460D
:1056B0004946FAF709FE52465B4680468946FBF7A3
:1056C0004BFA002840F0958252460BF100434046C9
:1056D0004946FBF723FA002840F089825BEC19ABBE
:1056E000119B002BC0F24881009A0E2A00F34481DE
:1056F000674B03EBC203D3E90089099B002B80F2BF
:10570000D580039B002B00F3D18040F06F82654B66
:10571000002240464946FAF78FFF52465B46FBF7A8
:1057200011FA039E3746002840F04582019D31233F
:1057300005F8013B009B0133009340E2F20705D5D9
:10574000D7E90023FAF778FF0135012376100837EF
:1057500077E7022579E7009F039E94E701994C4B78
:1057600031440D91089903EBC60353E90223002944
:1057700043D04D490020FBF789F852465B46FAF7C3
:10578000A3FD019D82468B4649464046FBF704FA3D
:105790000646FAF7E7FE02460B4640464946FAF748
:1057A00093FD303605F8016B52465B4680468946CC
:1057B000FBF7B4F9002863D142464B463649002036
:1057C000FAF782FD52465B46FBF7A8F9002840F045
:1057D000B5800D9B9D4281D0304B002250465946EA
:1057E000FAF72AFF2D4B82468B4640464946002257
:1057F000FAF722FF80468946C6E750465946FAF72F
:105800001BFF0D9B019D0F9382468B4649464046E8
:10581000FBF7C2F90646FAF7A5FE303602460B46FC
:1058200040464946FAF750FD05F8016B0D9B9D4235
:10583000804689464FF0000224D11B4B5046594602
:10584000FAF744FD02460B4640464946FBF784F909
:10585000002873D152465B4613490020FAF734FD05
:1058600002460B4640464946FBF758F900283FF4EC
:1058700035AF0F9D6B1E0F9315F8013C302BF8D000
:10588000009749E0054BFAF7D7FE80468946BDE709
:1058900060770008387700080000F03F00002440DF
:1058A00000001C40000014400000E03F019D5646EF
:1058B0005F4642464B4630463946FAF7E7FFFBF76C
:1058C0006BF98246FAF74EFE42464B46FAF7B4FEB3
:1058D00002460B46304639460AF13006FAF7F4FC28
:1058E00005F8016B019E039FAE1BB74202460B46B3
:1058F00035D1FAF7EBFC42464B4606460F46FBF71E
:105900002BF9D0B942464B4630463946FBF7FCF8F6
:1059100010B11AF0010F10D1204618EE101A00F045
:1059200013FD002300982B700C9B01301860219B05
:10593000002B3FF4F1AC1D60EEE4009F2B461D46AA
:1059400013F8012D392A06D1019A9A42F7D101990B
:10595000302201370A701A7801321A7090E7A64B8C
:105960000022FAF769FE0022002306460F46FBF7E5
:10597000CBF800289DD0CFE7089A002A00F0D78006
:10598000069A012A00F3BA800E9A002A00F0B2802B
:1059900003F23343079E049D049A1A440492059A25
:1059A00001211A442046059200F086FD0746002D8D
:1059B0000CDD059B002B09DDAB42049AA8BF2B46EA
:1059C000D21A0492059AED1AD31A0593079B1BB3BA
:1059D000089B002B00F0AF80002E13DD39463246C5
:1059E000204600F029FE18EE102A01460746204600
:1059F00000F078FD18EE101A8046204600F0A4FC56
:105A000008EE108A079B9A1B06D018EE101A204643
:105A100000F012FE08EE100A0121204600F04CFDB5
:105A20000A9B002B064640F388801A460146204612
:105A300000F002FE069B012B064640F381804FF0EA
:105A40000008336906EB8303186900F0E5FCC0F138
:105A50002000059B184410F01F0000F09280C0F158
:105A60002003042B40F38A80C0F11C00049B0344F4
:105A70000493059B034405440593049B002B07DD19
:105A800018EE101A1A46204600F030FE08EE100AF2
:105A9000059B002B05DD31461A46204600F026FE08
:105AA00006460B9B002B6ED018EE100A314600F014
:105AB0008DFE002867DA009B013B18EE101A009358
:105AC0000A220023204600F061FC089B08EE100A21
:105AD000002B00F0B181002339460A22204600F055
